{
  "_format": "hh-sol-artifact-1",
  "contractName": "Digibytes",
  "sourceName": "contracts/Digibytes/Digibytes.sol",
  "abi": [
    {
      "inputs": [],
      "stateMutability": "nonpayable",
      "type": "constructor"
    },
    {
      "anonymous": false,
      "inputs": [
        {
          "indexed": true,
          "internalType": "address",
          "name": "owner",
          "type": "address"
        },
        {
          "indexed": true,
          "internalType": "address",
          "name": "spender",
          "type": "address"
        },
        {
          "indexed": false,
          "internalType": "uint256",
          "name": "value",
          "type": "uint256"
        }
      ],
      "name": "Approval",
      "type": "event"
    },
    {
      "anonymous": false,
      "inputs": [
        {
          "indexed": true,
          "internalType": "address",
          "name": "oldOwner",
          "type": "address"
        },
        {
          "indexed": true,
          "internalType": "address",
          "name": "newOwner",
          "type": "address"
        }
      ],
      "name": "OwnerSet",
      "type": "event"
    },
    {
      "anonymous": false,
      "inputs": [
        {
          "indexed": true,
          "internalType": "address",
          "name": "from",
          "type": "address"
        },
        {
          "indexed": true,
          "internalType": "address",
          "name": "to",
          "type": "address"
        },
        {
          "indexed": false,
          "internalType": "uint256",
          "name": "value",
          "type": "uint256"
        }
      ],
      "name": "Transfer",
      "type": "event"
    },
    {
      "inputs": [
        {
          "internalType": "address",
          "name": "address_",
          "type": "address"
        }
      ],
      "name": "addNotPausedAddress",
      "outputs": [],
      "stateMutability": "nonpayable",
      "type": "function"
    },
    {
      "inputs": [
        {
          "internalType": "uint256",
          "name": "_amount",
          "type": "uint256"
        },
        {
          "internalType": "uint256",
          "name": "_time",
          "type": "uint256"
        },
        {
          "internalType": "address",
          "name": "_sender",
          "type": "address"
        }
      ],
      "name": "addPaused",
      "outputs": [],
      "stateMutability": "nonpayable",
      "type": "function"
    },
    {
      "inputs": [
        {
          "internalType": "address",
          "name": "owner",
          "type": "address"
        },
        {
          "internalType": "address",
          "name": "spender",
          "type": "address"
        }
      ],
      "name": "allowance",
      "outputs": [
        {
          "internalType": "uint256",
          "name": "",
          "type": "uint256"
        }
      ],
      "stateMutability": "view",
      "type": "function"
    },
    {
      "inputs": [
        {
          "internalType": "address",
          "name": "spender",
          "type": "address"
        },
        {
          "internalType": "uint256",
          "name": "amount",
          "type": "uint256"
        }
      ],
      "name": "approve",
      "outputs": [
        {
          "internalType": "bool",
          "name": "",
          "type": "bool"
        }
      ],
      "stateMutability": "nonpayable",
      "type": "function"
    },
    {
      "inputs": [
        {
          "internalType": "address",
          "name": "account",
          "type": "address"
        }
      ],
      "name": "balanceOf",
      "outputs": [
        {
          "internalType": "uint256",
          "name": "",
          "type": "uint256"
        }
      ],
      "stateMutability": "view",
      "type": "function"
    },
    {
      "inputs": [
        {
          "internalType": "uint8",
          "name": "_newMonth",
          "type": "uint8"
        }
      ],
      "name": "changeEndedMonth",
      "outputs": [],
      "stateMutability": "nonpayable",
      "type": "function"
    },
    {
      "inputs": [
        {
          "internalType": "address",
          "name": "newOwner",
          "type": "address"
        }
      ],
      "name": "changeOwner",
      "outputs": [],
      "stateMutability": "nonpayable",
      "type": "function"
    },
    {
      "inputs": [
        {
          "internalType": "uint8",
          "name": "_newPercent",
          "type": "uint8"
        }
      ],
      "name": "changeUnblockPercent",
      "outputs": [],
      "stateMutability": "nonpayable",
      "type": "function"
    },
    {
      "inputs": [],
      "name": "decimals",
      "outputs": [
        {
          "internalType": "uint8",
          "name": "",
          "type": "uint8"
        }
      ],
      "stateMutability": "view",
      "type": "function"
    },
    {
      "inputs": [
        {
          "internalType": "address",
          "name": "spender",
          "type": "address"
        },
        {
          "internalType": "uint256",
          "name": "subtractedValue",
          "type": "uint256"
        }
      ],
      "name": "decreaseAllowance",
      "outputs": [
        {
          "internalType": "bool",
          "name": "",
          "type": "bool"
        }
      ],
      "stateMutability": "nonpayable",
      "type": "function"
    },
    {
      "inputs": [
        {
          "internalType": "address",
          "name": "address_",
          "type": "address"
        }
      ],
      "name": "deleteNotPausedAddress",
      "outputs": [],
      "stateMutability": "nonpayable",
      "type": "function"
    },
    {
      "inputs": [
        {
          "internalType": "address",
          "name": "_sender",
          "type": "address"
        }
      ],
      "name": "deletePaused",
      "outputs": [],
      "stateMutability": "nonpayable",
      "type": "function"
    },
    {
      "inputs": [],
      "name": "getOwner",
      "outputs": [
        {
          "internalType": "address",
          "name": "",
          "type": "address"
        }
      ],
      "stateMutability": "view",
      "type": "function"
    },
    {
      "inputs": [
        {
          "internalType": "address",
          "name": "sender",
          "type": "address"
        }
      ],
      "name": "getSomeAlwaysAmount",
      "outputs": [
        {
          "internalType": "uint256",
          "name": "",
          "type": "uint256"
        }
      ],
      "stateMutability": "view",
      "type": "function"
    },
    {
      "inputs": [
        {
          "internalType": "address",
          "name": "account",
          "type": "address"
        }
      ],
      "name": "getTimeWhenPaused",
      "outputs": [
        {
          "internalType": "uint256",
          "name": "",
          "type": "uint256"
        }
      ],
      "stateMutability": "view",
      "type": "function"
    },
    {
      "inputs": [
        {
          "internalType": "address",
          "name": "spender",
          "type": "address"
        },
        {
          "internalType": "uint256",
          "name": "addedValue",
          "type": "uint256"
        }
      ],
      "name": "increaseAllowance",
      "outputs": [
        {
          "internalType": "bool",
          "name": "",
          "type": "bool"
        }
      ],
      "stateMutability": "nonpayable",
      "type": "function"
    },
    {
      "inputs": [
        {
          "internalType": "uint256",
          "name": "_time",
          "type": "uint256"
        },
        {
          "internalType": "address",
          "name": "_mockPausedAddress",
          "type": "address"
        }
      ],
      "name": "mockPaused",
      "outputs": [],
      "stateMutability": "nonpayable",
      "type": "function"
    },
    {
      "inputs": [],
      "name": "name",
      "outputs": [
        {
          "internalType": "string",
          "name": "",
          "type": "string"
        }
      ],
      "stateMutability": "view",
      "type": "function"
    },
    {
      "inputs": [
        {
          "internalType": "address",
          "name": "account",
          "type": "address"
        }
      ],
      "name": "pausedBalanceOf",
      "outputs": [
        {
          "internalType": "uint256",
          "name": "",
          "type": "uint256"
        }
      ],
      "stateMutability": "view",
      "type": "function"
    },
    {
      "inputs": [
        {
          "internalType": "address",
          "name": "sender",
          "type": "address"
        },
        {
          "internalType": "uint8",
          "name": "_month",
          "type": "uint8"
        }
      ],
      "name": "pausedMonth",
      "outputs": [
        {
          "internalType": "bool",
          "name": "",
          "type": "bool"
        }
      ],
      "stateMutability": "view",
      "type": "function"
    },
    {
      "inputs": [],
      "name": "presale",
      "outputs": [
        {
          "internalType": "address",
          "name": "",
          "type": "address"
        }
      ],
      "stateMutability": "view",
      "type": "function"
    },
    {
      "inputs": [
        {
          "internalType": "address",
          "name": "_presale",
          "type": "address"
        }
      ],
      "name": "setPresaleAddress",
      "outputs": [],
      "stateMutability": "nonpayable",
      "type": "function"
    },
    {
      "inputs": [],
      "name": "symbol",
      "outputs": [
        {
          "internalType": "string",
          "name": "",
          "type": "string"
        }
      ],
      "stateMutability": "view",
      "type": "function"
    },
    {
      "inputs": [],
      "name": "totalSupply",
      "outputs": [
        {
          "internalType": "uint256",
          "name": "",
          "type": "uint256"
        }
      ],
      "stateMutability": "view",
      "type": "function"
    },
    {
      "inputs": [
        {
          "internalType": "address",
          "name": "recipient",
          "type": "address"
        },
        {
          "internalType": "uint256",
          "name": "amount",
          "type": "uint256"
        }
      ],
      "name": "transfer",
      "outputs": [
        {
          "internalType": "bool",
          "name": "",
          "type": "bool"
        }
      ],
      "stateMutability": "nonpayable",
      "type": "function"
    },
    {
      "inputs": [
        {
          "internalType": "address",
          "name": "sender",
          "type": "address"
        },
        {
          "internalType": "address",
          "name": "recipient",
          "type": "address"
        },
        {
          "internalType": "uint256",
          "name": "amount",
          "type": "uint256"
        }
      ],
      "name": "transferFrom",
      "outputs": [
        {
          "internalType": "bool",
          "name": "",
          "type": "bool"
        }
      ],
      "stateMutability": "nonpayable",
      "type": "function"
    }
  ],
  "bytecode": "0x60806040526006600560006101000a81548160ff021916908360ff160217905550601e600560016101000a81548160ff021916908360ff1602179055503480156200004957600080fd5b506040518060400160405280600981526020017f44696769627974657300000000000000000000000000000000000000000000008152506040518060400160405280600381526020017f44425400000000000000000000000000000000000000000000000000000000008152508160089080519060200190620000ce92919062000350565b508060099080519060200190620000e792919062000350565b50505033600c60006101000a81548173ffffffffffffffffffffffffffffffffffffffff021916908373ffffffffffffffffffffffffffffffffffffffff160217905550600c60009054906101000a900473ffffffffffffffffffffffffffffffffffffffff1673ffffffffffffffffffffffffffffffffffffffff16600073ffffffffffffffffffffffffffffffffffffffff167f342827c97908e5e2f71151c08502a66d44b6f758e3ac2f1de95f02eb95f0a73560405160405180910390a3620001c6336b019d971e4fe8401e74000000620001cc60201b60201c565b620005ac565b600073ffffffffffffffffffffffffffffffffffffffff168273ffffffffffffffffffffffffffffffffffffffff1614156200023f576040517f08c379a0000000000000000000000000000000000000000000000000000000008152600401620002369062000461565b60405180910390fd5b62000253600083836200034660201b60201c565b8060076000828254620002679190620004bc565b9250508190555080600460008473ffffffffffffffffffffffffffffffffffffffff1673ffffffffffffffffffffffffffffffffffffffff1681526020019081526020016000206000828254620002bf9190620004bc565b925050819055508173ffffffffffffffffffffffffffffffffffffffff16600073ffffffffffffffffffffffffffffffffffffffff167fddf252ad1be2c89b69c2b068fc378daa952ba7f163c4a11628f55a4df523b3ef836040516200032691906200052a565b60405180910390a362000342600083836200034b60201b60201c565b5050565b505050565b505050565b8280546200035e9062000576565b90600052602060002090601f016020900481019282620003825760008555620003ce565b82601f106200039d57805160ff1916838001178555620003ce565b82800160010185558215620003ce579182015b82811115620003cd578251825591602001919060010190620003b0565b5b509050620003dd9190620003e1565b5090565b5b80821115620003fc576000816000905550600101620003e2565b5090565b600082825260208201905092915050565b7f45524332303a206d696e7420746f20746865207a65726f206164647265737300600082015250565b600062000449601f8362000400565b9150620004568262000411565b602082019050919050565b600060208201905081810360008301526200047c816200043a565b9050919050565b6000819050919050565b7f4e487b7100000000000000000000000000000000000000000000000000000000600052601160045260246000fd5b6000620004c98262000483565b9150620004d68362000483565b9250827fffffffffffffffffffffffffffffffffffffffffffffffffffffffffffffffff038211156200050e576200050d6200048d565b5b828201905092915050565b620005248162000483565b82525050565b600060208201905062000541600083018462000519565b92915050565b7f4e487b7100000000000000000000000000000000000000000000000000000000600052602260045260246000fd5b600060028204905060018216806200058f57607f821691505b60208210811415620005a657620005a562000547565b5b50919050565b61340580620005bc6000396000f3fe608060405234801561001057600080fd5b506004361061018e5760003560e01c8063893d20e8116100de578063bdb9f28d11610097578063ce8da37811610071578063ce8da378146104b9578063d2fd27e0146104d5578063dd62ed3e14610505578063fdea8e0b146105355761018e565b8063bdb9f28d14610451578063c02831631461046d578063c6523b4a146104895761018e565b8063893d20e81461037d57806395d89b411461039b578063973d77b9146103b9578063a457c2d7146103d5578063a6f9dae114610405578063a9059cbb146104215761018e565b8063313ce5671161014b5780633baffa69116101255780633baffa69146102e557806370a082311461030157806372df658714610331578063851c0f24146103615761018e565b8063313ce5671461027b57806336b86b4a1461029957806339509351146102b55761018e565b806306fdde0314610193578063095ea7b3146101b157806312443e30146101e1578063166b914d1461021157806318160ddd1461022d57806323b872dd1461024b575b600080fd5b61019b610553565b6040516101a8919061265c565b60405180910390f35b6101cb60048036038101906101c69190612717565b6105e5565b6040516101d89190612772565b60405180910390f35b6101fb60048036038101906101f6919061278d565b610603565b60405161020891906127c9565b60405180910390f35b61022b6004803603810190610226919061278d565b61064c565b005b6102356107ae565b60405161024291906127c9565b60405180910390f35b610265600480360381019061026091906127e4565b6107b8565b6040516102729190612772565b60405180910390f35b6102836108b0565b6040516102909190612853565b60405180910390f35b6102b360048036038101906102ae919061289a565b6108b9565b005b6102cf60048036038101906102ca9190612717565b610967565b6040516102dc9190612772565b60405180910390f35b6102ff60048036038101906102fa919061289a565b610a13565b005b61031b6004803603810190610316919061278d565b610ac1565b60405161032891906127c9565b60405180910390f35b61034b6004803603810190610346919061278d565b610b0a565b60405161035891906127c9565b60405180910390f35b61037b600480360381019061037691906128c7565b610b53565b005b610385610de8565b6040516103929190612929565b60405180910390f35b6103a3610e12565b6040516103b0919061265c565b60405180910390f35b6103d360048036038101906103ce919061278d565b610ea4565b005b6103ef60048036038101906103ea9190612717565b610f8f565b6040516103fc9190612772565b60405180910390f35b61041f600480360381019061041a919061278d565b61107a565b005b61043b60048036038101906104369190612717565b6111ca565b6040516104489190612772565b60405180910390f35b61046b6004803603810190610466919061278d565b6111e8565b005b61048760048036038101906104829190612944565b61132c565b005b6104a3600480360381019061049e9190612984565b611404565b6040516104b09190612772565b60405180910390f35b6104d360048036038101906104ce919061278d565b611501565b005b6104ef60048036038101906104ea919061278d565b6115ec565b6040516104fc91906127c9565b60405180910390f35b61051f600480360381019061051a91906129c4565b611635565b60405161052c91906127c9565b60405180910390f35b61053d6116bc565b60405161054a9190612929565b60405180910390f35b60606008805461056290612a33565b80601f016020809104026020016040519081016040528092919081815260200182805461058e90612a33565b80156105db5780601f106105b0576101008083540402835291602001916105db565b820191906000526020600020905b8154815290600101906020018083116105be57829003601f168201915b5050505050905090565b60006105f96105f26116e2565b84846116ea565b6001905092915050565b6000600160008373ffffffffffffffffffffffffffffffffffffffff1673ffffffffffffffffffffffffffffffffffffffff168152602001908152602001600020549050919050565b600c60009054906101000a900473ffffffffffffffffffffffffffffffffffffffff1673ffffffffffffffffffffffffffffffffffffffff163373ffffffffffffffffffffffffffffffffffffffff16146106dc576040517f08c379a00000000000000000000000000000000000000000000000000000000081526004016106d390612ab1565b60405180910390fd5b6000600160008373ffffffffffffffffffffffffffffffffffffffff1673ffffffffffffffffffffffffffffffffffffffff168152602001908152602001600020819055506000600260008373ffffffffffffffffffffffffffffffffffffffff1673ffffffffffffffffffffffffffffffffffffffff168152602001908152602001600020819055506000600360008373ffffffffffffffffffffffffffffffffffffffff1673ffffffffffffffffffffffffffffffffffffffff1681526020019081526020016000208190555050565b6000600754905090565b60006107c58484846118b5565b6000600660008673ffffffffffffffffffffffffffffffffffffffff1673ffffffffffffffffffffffffffffffffffffffff16815260200190815260200160002060006108106116e2565b73ffffffffffffffffffffffffffffffffffffffff1673ffffffffffffffffffffffffffffffffffffffff16815260200190815260200160002054905082811015610890576040517f08c379a000000000000000000000000000000000000000000000000000000000815260040161088790612b43565b60405180910390fd5b6108a48561089c6116e2565b8584036116ea565b60019150509392505050565b60006012905090565b600c60009054906101000a900473ffffffffffffffffffffffffffffffffffffffff1673ffffffffffffffffffffffffffffffffffffffff163373ffffffffffffffffffffffffffffffffffffffff1614610949576040517f08c379a000000000000000000000000000000000000000000000000000000000815260040161094090612ab1565b60405180910390fd5b80600560006101000a81548160ff021916908360ff16021790555050565b6000610a096109746116e2565b8484600660006109826116e2565b73ffffffffffffffffffffffffffffffffffffffff1673ffffffffffffffffffffffffffffffffffffffff16815260200190815260200160002060008873ffffffffffffffffffffffffffffffffffffffff1673ffffffffffffffffffffffffffffffffffffffff16815260200190815260200160002054610a049190612b92565b6116ea565b6001905092915050565b600c60009054906101000a900473ffffffffffffffffffffffffffffffffffffffff1673ffffffffffffffffffffffffffffffffffffffff163373ffffffffffffffffffffffffffffffffffffffff1614610aa3576040517f08c379a0000000000000000000000000000000000000000000000000000000008152600401610a9a90612ab1565b60405180910390fd5b80600560016101000a81548160ff021916908360ff16021790555050565b6000600460008373ffffffffffffffffffffffffffffffffffffffff1673ffffffffffffffffffffffffffffffffffffffff168152602001908152602001600020549050919050565b6000600360008373ffffffffffffffffffffffffffffffffffffffff1673ffffffffffffffffffffffffffffffffffffffff168152602001908152602001600020549050919050565b600073ffffffffffffffffffffffffffffffffffffffff16600b60009054906101000a900473ffffffffffffffffffffffffffffffffffffffff1673ffffffffffffffffffffffffffffffffffffffff161415610be5576040517f08c379a0000000000000000000000000000000000000000000000000000000008152600401610bdc90612c34565b60405180910390fd5b600b60009054906101000a900473ffffffffffffffffffffffffffffffffffffffff1673ffffffffffffffffffffffffffffffffffffffff163373ffffffffffffffffffffffffffffffffffffffff1614610c75576040517f08c379a0000000000000000000000000000000000000000000000000000000008152600401610c6c90612ca0565b60405180910390fd5b610cc783600160008473ffffffffffffffffffffffffffffffffffffffff1673ffffffffffffffffffffffffffffffffffffffff16815260200190815260200160002054611c9790919063ffffffff16565b600160008373ffffffffffffffffffffffffffffffffffffffff1673ffffffffffffffffffffffffffffffffffffffff16815260200190815260200160002081905550610d5c83600260008473ffffffffffffffffffffffffffffffffffffffff1673ffffffffffffffffffffffffffffffffffffffff16815260200190815260200160002054611c9790919063ffffffff16565b600260008373ffffffffffffffffffffffffffffffffffffffff1673ffffffffffffffffffffffffffffffffffffffff1681526020019081526020016000208190555081600360008373ffffffffffffffffffffffffffffffffffffffff1673ffffffffffffffffffffffffffffffffffffffff16815260200190815260200160002081905550505050565b6000600c60009054906101000a900473ffffffffffffffffffffffffffffffffffffffff16905090565b606060098054610e2190612a33565b80601f0160208091040260200160405190810160405280929190818152602001828054610e4d90612a33565b8015610e9a5780601f10610e6f57610100808354040283529160200191610e9a565b820191906000526020600020905b815481529060010190602001808311610e7d57829003601f168201915b5050505050905090565b600c60009054906101000a900473ffffffffffffffffffffffffffffffffffffffff1673ffffffffffffffffffffffffffffffffffffffff163373ffffffffffffffffffffffffffffffffffffffff1614610f34576040517f08c379a0000000000000000000000000000000000000000000000000000000008152600401610f2b90612ab1565b60405180910390fd5b6000600a60008373ffffffffffffffffffffffffffffffffffffffff1673ffffffffffffffffffffffffffffffffffffffff16815260200190815260200160002060006101000a81548160ff02191690831515021790555050565b60008060066000610f9e6116e2565b73ffffffffffffffffffffffffffffffffffffffff1673ffffffffffffffffffffffffffffffffffffffff16815260200190815260200160002060008573ffffffffffffffffffffffffffffffffffffffff1673ffffffffffffffffffffffffffffffffffffffff1681526020019081526020016000205490508281101561105b576040517f08c379a000000000000000000000000000000000000000000000000000000000815260040161105290612d32565b60405180910390fd5b61106f6110666116e2565b858584036116ea565b600191505092915050565b600c60009054906101000a900473ffffffffffffffffffffffffffffffffffffffff1673ffffffffffffffffffffffffffffffffffffffff163373ffffffffffffffffffffffffffffffffffffffff161461110a576040517f08c379a000000000000000000000000000000000000000000000000000000000815260040161110190612ab1565b60405180910390fd5b8073ffffffffffffffffffffffffffffffffffffffff16600c60009054906101000a900473ffffffffffffffffffffffffffffffffffffffff1673ffffffffffffffffffffffffffffffffffffffff167f342827c97908e5e2f71151c08502a66d44b6f758e3ac2f1de95f02eb95f0a73560405160405180910390a380600c60006101000a81548173ffffffffffffffffffffffffffffffffffffffff021916908373ffffffffffffffffffffffffffffffffffffffff16021790555050565b60006111de6111d76116e2565b84846118b5565b6001905092915050565b600c60009054906101000a900473ffffffffffffffffffffffffffffffffffffffff1673ffffffffffffffffffffffffffffffffffffffff163373ffffffffffffffffffffffffffffffffffffffff1614611278576040517f08c379a000000000000000000000000000000000000000000000000000000000815260040161126f90612ab1565b60405180910390fd5b600073ffffffffffffffffffffffffffffffffffffffff168173ffffffffffffffffffffffffffffffffffffffff1614156112e8576040517f08c379a00000000000000000000000000000000000000000000000000000000081526004016112df90612d9e565b60405180910390fd5b80600b60006101000a81548173ffffffffffffffffffffffffffffffffffffffff021916908373ffffffffffffffffffffffffffffffffffffffff16021790555050565b600c60009054906101000a900473ffffffffffffffffffffffffffffffffffffffff1673ffffffffffffffffffffffffffffffffffffffff163373ffffffffffffffffffffffffffffffffffffffff16146113bc576040517f08c379a00000000000000000000000000000000000000000000000000000000081526004016113b390612ab1565b60405180910390fd5b81600360008373ffffffffffffffffffffffffffffffffffffffff1673ffffffffffffffffffffffffffffffffffffffff168152602001908152602001600020819055505050565b6000600c60009054906101000a900473ffffffffffffffffffffffffffffffffffffffff1673ffffffffffffffffffffffffffffffffffffffff163373ffffffffffffffffffffffffffffffffffffffff1614611496576040517f08c379a000000000000000000000000000000000000000000000000000000000815260040161148d90612ab1565b60405180910390fd5b6000808473ffffffffffffffffffffffffffffffffffffffff1673ffffffffffffffffffffffffffffffffffffffff16815260200190815260200160002060008360ff1660ff16815260200190815260200160002060009054906101000a900460ff16905092915050565b600c60009054906101000a900473ffffffffffffffffffffffffffffffffffffffff1673ffffffffffffffffffffffffffffffffffffffff163373ffffffffffffffffffffffffffffffffffffffff1614611591576040517f08c379a000000000000000000000000000000000000000000000000000000000815260040161158890612ab1565b60405180910390fd5b6001600a60008373ffffffffffffffffffffffffffffffffffffffff1673ffffffffffffffffffffffffffffffffffffffff16815260200190815260200160002060006101000a81548160ff02191690831515021790555050565b6000600260008373ffffffffffffffffffffffffffffffffffffffff1673ffffffffffffffffffffffffffffffffffffffff168152602001908152602001600020549050919050565b6000600660008473ffffffffffffffffffffffffffffffffffffffff1673ffffffffffffffffffffffffffffffffffffffff16815260200190815260200160002060008373ffffffffffffffffffffffffffffffffffffffff1673ffffffffffffffffffffffffffffffffffffffff16815260200190815260200160002054905092915050565b600b60009054906101000a900473ffffffffffffffffffffffffffffffffffffffff1681565b600033905090565b600073ffffffffffffffffffffffffffffffffffffffff168373ffffffffffffffffffffffffffffffffffffffff16141561175a576040517f08c379a000000000000000000000000000000000000000000000000000000000815260040161175190612e30565b60405180910390fd5b600073ffffffffffffffffffffffffffffffffffffffff168273ffffffffffffffffffffffffffffffffffffffff1614156117ca576040517f08c379a00000000000000000000000000000000000000000000000000000000081526004016117c190612ec2565b60405180910390fd5b80600660008573ffffffffffffffffffffffffffffffffffffffff1673ffffffffffffffffffffffffffffffffffffffff16815260200190815260200160002060008473ffffffffffffffffffffffffffffffffffffffff1673ffffffffffffffffffffffffffffffffffffffff168152602001908152602001600020819055508173ffffffffffffffffffffffffffffffffffffffff168373ffffffffffffffffffffffffffffffffffffffff167f8c5be1e5ebec7d5bd14f71427d1e84f3dd0314c0f7b2291e5b200ac8c7c3b925836040516118a891906127c9565b60405180910390a3505050565b6000600160008573ffffffffffffffffffffffffffffffffffffffff1673ffffffffffffffffffffffffffffffffffffffff1681526020019081526020016000205414611a1257600560009054906101000a900460ff1660ff1662278d0061191d9190612ef1565b62ffffff16600360008573ffffffffffffffffffffffffffffffffffffffff1673ffffffffffffffffffffffffffffffffffffffff1681526020019081526020016000205461196c9190612b92565b421015806119c35750600a60008373ffffffffffffffffffffffffffffffffffffffff1673ffffffffffffffffffffffffffffffffffffffff16815260200190815260200160002060009054906101000a900460ff165b611a02576040517f08c379a00000000000000000000000000000000000000000000000000000000081526004016119f990612f7a565b60405180910390fd5b611a0d838383611cc3565b611c92565b600073ffffffffffffffffffffffffffffffffffffffff168373ffffffffffffffffffffffffffffffffffffffff161415611a82576040517f08c379a0000000000000000000000000000000000000000000000000000000008152600401611a799061300c565b60405180910390fd5b600073ffffffffffffffffffffffffffffffffffffffff168273ffffffffffffffffffffffffffffffffffffffff161415611af2576040517f08c379a0000000000000000000000000000000000000000000000000000000008152600401611ae99061309e565b60405180910390fd5b611afd8383836125b9565b6000600460008573ffffffffffffffffffffffffffffffffffffffff1673ffffffffffffffffffffffffffffffffffffffff16815260200190815260200160002054905081811015611b84576040517f08c379a0000000000000000000000000000000000000000000000000000000008152600401611b7b90613130565b60405180910390fd5b818103600460008673ffffffffffffffffffffffffffffffffffffffff1673ffffffffffffffffffffffffffffffffffffffff1681526020019081526020016000208190555081600460008573ffffffffffffffffffffffffffffffffffffffff1673ffffffffffffffffffffffffffffffffffffffff1681526020019081526020016000206000828254611c199190612b92565b925050819055508273ffffffffffffffffffffffffffffffffffffffff168473ffffffffffffffffffffffffffffffffffffffff167fddf252ad1be2c89b69c2b068fc378daa952ba7f163c4a11628f55a4df523b3ef84604051611c7d91906127c9565b60405180910390a3611c908484846125be565b505b505050565b6000808284611ca69190612b92565b905083811015611cb957611cb8613150565b5b8091505092915050565b600073ffffffffffffffffffffffffffffffffffffffff168373ffffffffffffffffffffffffffffffffffffffff161415611d33576040517f08c379a0000000000000000000000000000000000000000000000000000000008152600401611d2a9061300c565b60405180910390fd5b600073ffffffffffffffffffffffffffffffffffffffff168273ffffffffffffffffffffffffffffffffffffffff161415611da3576040517f08c379a0000000000000000000000000000000000000000000000000000000008152600401611d9a9061309e565b60405180910390fd5b6000601e6018603c80600360008973ffffffffffffffffffffffffffffffffffffffff1673ffffffffffffffffffffffffffffffffffffffff1681526020019081526020016000205442611df7919061317f565b611e0191906131e2565b611e0b91906131e2565b611e1591906131e2565b611e1f91906131e2565b9050611e2c8484846125b9565b600015156000808673ffffffffffffffffffffffffffffffffffffffff1673ffffffffffffffffffffffffffffffffffffffff16815260200190815260200160002060008360ff1660ff16815260200190815260200160002060009054906101000a900460ff161515148015611ea6575060008160ff1614155b1561219f576003600560009054906101000a900460ff16611ec79190613213565b60ff168160ff161415612014576000600160008673ffffffffffffffffffffffffffffffffffffffff1673ffffffffffffffffffffffffffffffffffffffff168152602001908152602001600020819055506000600260008673ffffffffffffffffffffffffffffffffffffffff1673ffffffffffffffffffffffffffffffffffffffff168152602001908152602001600020819055506000600190505b6003600560009054906101000a900460ff16611f819190613213565b60ff168160ff161161200e5760008060008773ffffffffffffffffffffffffffffffffffffffff1673ffffffffffffffffffffffffffffffffffffffff16815260200190815260200160002060008360ff1660ff16815260200190815260200160002060006101000a81548160ff02191690831515021790555080806120069061324a565b915050611f65565b5061219e565b6064600560019054906101000a900460ff16600560009054906101000a900460ff16836120419190613274565b61204b91906132a8565b60ff16600260008773ffffffffffffffffffffffffffffffffffffffff1673ffffffffffffffffffffffffffffffffffffffff1681526020019081526020016000205461209891906132e3565b6120a291906131e2565b600260008673ffffffffffffffffffffffffffffffffffffffff1673ffffffffffffffffffffffffffffffffffffffff168152602001908152602001600020546120ec919061317f565b600160008673ffffffffffffffffffffffffffffffffffffffff1673ffffffffffffffffffffffffffffffffffffffff1681526020019081526020016000208190555060016000808673ffffffffffffffffffffffffffffffffffffffff1673ffffffffffffffffffffffffffffffffffffffff16815260200190815260200160002060008360ff1660ff16815260200190815260200160002060006101000a81548160ff0219169083151502179055505b5b6000600a60008573ffffffffffffffffffffffffffffffffffffffff1673ffffffffffffffffffffffffffffffffffffffff16815260200190815260200160002060009054906101000a900460ff161561223a57600460008673ffffffffffffffffffffffffffffffffffffffff1673ffffffffffffffffffffffffffffffffffffffff1681526020019081526020016000205490506122c7565b600160008673ffffffffffffffffffffffffffffffffffffffff1673ffffffffffffffffffffffffffffffffffffffff16815260200190815260200160002054600460008773ffffffffffffffffffffffffffffffffffffffff1673ffffffffffffffffffffffffffffffffffffffff168152602001908152602001600020546122c4919061317f565b90505b8281101561230a576040517f08c379a0000000000000000000000000000000000000000000000000000000008152600401612301906133af565b60405180910390fd5b82600460008773ffffffffffffffffffffffffffffffffffffffff1673ffffffffffffffffffffffffffffffffffffffff1681526020019081526020016000205403600460008773ffffffffffffffffffffffffffffffffffffffff1673ffffffffffffffffffffffffffffffffffffffff16815260200190815260200160002081905550600a60008573ffffffffffffffffffffffffffffffffffffffff1673ffffffffffffffffffffffffffffffffffffffff16815260200190815260200160002060009054906101000a900460ff16156124ec5782600160008773ffffffffffffffffffffffffffffffffffffffff1673ffffffffffffffffffffffffffffffffffffffff1681526020019081526020016000205403600160008773ffffffffffffffffffffffffffffffffffffffff1673ffffffffffffffffffffffffffffffffffffffff1681526020019081526020016000208190555082600260008773ffffffffffffffffffffffffffffffffffffffff1673ffffffffffffffffffffffffffffffffffffffff1681526020019081526020016000205403600260008773ffffffffffffffffffffffffffffffffffffffff1673ffffffffffffffffffffffffffffffffffffffff168152602001908152602001600020819055505b82600460008673ffffffffffffffffffffffffffffffffffffffff1673ffffffffffffffffffffffffffffffffffffffff168152602001908152602001600020600082825461253b9190612b92565b925050819055508373ffffffffffffffffffffffffffffffffffffffff168573ffffffffffffffffffffffffffffffffffffffff167fddf252ad1be2c89b69c2b068fc378daa952ba7f163c4a11628f55a4df523b3ef8560405161259f91906127c9565b60405180910390a36125b28585856125be565b5050505050565b505050565b505050565b600081519050919050565b600082825260208201905092915050565b60005b838110156125fd5780820151818401526020810190506125e2565b8381111561260c576000848401525b50505050565b6000601f19601f8301169050919050565b600061262e826125c3565b61263881856125ce565b93506126488185602086016125df565b61265181612612565b840191505092915050565b600060208201905081810360008301526126768184612623565b905092915050565b600080fd5b600073ffffffffffffffffffffffffffffffffffffffff82169050919050565b60006126ae82612683565b9050919050565b6126be816126a3565b81146126c957600080fd5b50565b6000813590506126db816126b5565b92915050565b6000819050919050565b6126f4816126e1565b81146126ff57600080fd5b50565b600081359050612711816126eb565b92915050565b6000806040838503121561272e5761272d61267e565b5b600061273c858286016126cc565b925050602061274d85828601612702565b9150509250929050565b60008115159050919050565b61276c81612757565b82525050565b60006020820190506127876000830184612763565b92915050565b6000602082840312156127a3576127a261267e565b5b60006127b1848285016126cc565b91505092915050565b6127c3816126e1565b82525050565b60006020820190506127de60008301846127ba565b92915050565b6000806000606084860312156127fd576127fc61267e565b5b600061280b868287016126cc565b935050602061281c868287016126cc565b925050604061282d86828701612702565b9150509250925092565b600060ff82169050919050565b61284d81612837565b82525050565b60006020820190506128686000830184612844565b92915050565b61287781612837565b811461288257600080fd5b50565b6000813590506128948161286e565b92915050565b6000602082840312156128b0576128af61267e565b5b60006128be84828501612885565b91505092915050565b6000806000606084860312156128e0576128df61267e565b5b60006128ee86828701612702565b93505060206128ff86828701612702565b9250506040612910868287016126cc565b9150509250925092565b612923816126a3565b82525050565b600060208201905061293e600083018461291a565b92915050565b6000806040838503121561295b5761295a61267e565b5b600061296985828601612702565b925050602061297a858286016126cc565b9150509250929050565b6000806040838503121561299b5761299a61267e565b5b60006129a9858286016126cc565b92505060206129ba85828601612885565b9150509250929050565b600080604083850312156129db576129da61267e565b5b60006129e9858286016126cc565b92505060206129fa858286016126cc565b9150509250929050565b7f4e487b7100000000000000000000000000000000000000000000000000000000600052602260045260246000fd5b60006002820490506001821680612a4b57607f821691505b60208210811415612a5f57612a5e612a04565b5b50919050565b7f43616c6c6572206973206e6f74206f776e657200000000000000000000000000600082015250565b6000612a9b6013836125ce565b9150612aa682612a65565b602082019050919050565b60006020820190508181036000830152612aca81612a8e565b9050919050565b7f45524332303a207472616e7366657220616d6f756e742065786365656473206160008201527f6c6c6f77616e6365000000000000000000000000000000000000000000000000602082015250565b6000612b2d6028836125ce565b9150612b3882612ad1565b604082019050919050565b60006020820190508181036000830152612b5c81612b20565b9050919050565b7f4e487b7100000000000000000000000000000000000000000000000000000000600052601160045260246000fd5b6000612b9d826126e1565b9150612ba8836126e1565b9250827fffffffffffffffffffffffffffffffffffffffffffffffffffffffffffffffff03821115612bdd57612bdc612b63565b5b828201905092915050565b7f50726573616c6520697320300000000000000000000000000000000000000000600082015250565b6000612c1e600c836125ce565b9150612c2982612be8565b602082019050919050565b60006020820190508181036000830152612c4d81612c11565b9050919050565b7f4f6e6c792050726573616c650000000000000000000000000000000000000000600082015250565b6000612c8a600c836125ce565b9150612c9582612c54565b602082019050919050565b60006020820190508181036000830152612cb981612c7d565b9050919050565b7f45524332303a2064656372656173656420616c6c6f77616e63652062656c6f7760008201527f207a65726f000000000000000000000000000000000000000000000000000000602082015250565b6000612d1c6025836125ce565b9150612d2782612cc0565b604082019050919050565b60006020820190508181036000830152612d4b81612d0f565b9050919050565b7f3020616464726573730000000000000000000000000000000000000000000000600082015250565b6000612d886009836125ce565b9150612d9382612d52565b602082019050919050565b60006020820190508181036000830152612db781612d7b565b9050919050565b7f45524332303a20617070726f76652066726f6d20746865207a65726f2061646460008201527f7265737300000000000000000000000000000000000000000000000000000000602082015250565b6000612e1a6024836125ce565b9150612e2582612dbe565b604082019050919050565b60006020820190508181036000830152612e4981612e0d565b9050919050565b7f45524332303a20617070726f766520746f20746865207a65726f20616464726560008201527f7373000000000000000000000000000000000000000000000000000000000000602082015250565b6000612eac6022836125ce565b9150612eb782612e50565b604082019050919050565b60006020820190508181036000830152612edb81612e9f565b9050919050565b600062ffffff82169050919050565b6000612efc82612ee2565b9150612f0783612ee2565b92508162ffffff0483118215151615612f2357612f22612b63565b5b828202905092915050565b7f5374696c6c207061757365640000000000000000000000000000000000000000600082015250565b6000612f64600c836125ce565b9150612f6f82612f2e565b602082019050919050565b60006020820190508181036000830152612f9381612f57565b9050919050565b7f45524332303a207472616e736665722066726f6d20746865207a65726f20616460008201527f6472657373000000000000000000000000000000000000000000000000000000602082015250565b6000612ff66025836125ce565b915061300182612f9a565b604082019050919050565b6000602082019050818103600083015261302581612fe9565b9050919050565b7f45524332303a207472616e7366657220746f20746865207a65726f206164647260008201527f6573730000000000000000000000000000000000000000000000000000000000602082015250565b60006130886023836125ce565b91506130938261302c565b604082019050919050565b600060208201905081810360008301526130b78161307b565b9050919050565b7f45524332303a207472616e7366657220616d6f756e742065786365656473206260008201527f616c616e63653131310000000000000000000000000000000000000000000000602082015250565b600061311a6029836125ce565b9150613125826130be565b604082019050919050565b600060208201905081810360008301526131498161310d565b9050919050565b7f4e487b7100000000000000000000000000000000000000000000000000000000600052600160045260246000fd5b600061318a826126e1565b9150613195836126e1565b9250828210156131a8576131a7612b63565b5b828203905092915050565b7f4e487b7100000000000000000000000000000000000000000000000000000000600052601260045260246000fd5b60006131ed826126e1565b91506131f8836126e1565b925082613208576132076131b3565b5b828204905092915050565b600061321e82612837565b915061322983612837565b92508260ff0382111561323f5761323e612b63565b5b828201905092915050565b600061325582612837565b915060ff82141561326957613268612b63565b5b600182019050919050565b600061327f82612837565b915061328a83612837565b92508282101561329d5761329c612b63565b5b828203905092915050565b60006132b382612837565b91506132be83612837565b92508160ff04831182151516156132d8576132d7612b63565b5b828202905092915050565b60006132ee826126e1565b91506132f9836126e1565b9250817fffffffffffffffffffffffffffffffffffffffffffffffffffffffffffffffff048311821515161561333257613331612b63565b5b828202905092915050565b7f45524332303a207472616e7366657220616d6f756e742065786365656473207060008201527f6175736564000000000000000000000000000000000000000000000000000000602082015250565b60006133996025836125ce565b91506133a48261333d565b604082019050919050565b600060208201905081810360008301526133c88161338c565b905091905056fea2646970667358221220c8065a9c936c4ac308d46cb4cb618c741347a2bc75bcfcedc505395409e7c75164736f6c634300080a0033",
  "linkReferences": {},
  "deployedLinkReferences": {}
}