{
  "_format": "hh-sol-artifact-1",
  "contractName": "PresaleDIG",
  "sourceName": "contracts/Presale/PresaleDIG.sol",
  "abi": [
    {
      "inputs": [
        {
          "internalType": "address",
          "name": "token_",
          "type": "address"
        },
        {
          "internalType": "uint256[]",
          "name": "startTime_",
          "type": "uint256[]"
        },
        {
          "internalType": "uint256[]",
          "name": "endTime_",
          "type": "uint256[]"
        },
        {
          "internalType": "address",
          "name": "wallet_",
          "type": "address"
        },
        {
          "internalType": "uint256[]",
          "name": "price_",
          "type": "uint256[]"
        },
        {
          "internalType": "uint16[]",
          "name": "tokenAmount_",
          "type": "uint16[]"
        }
      ],
      "stateMutability": "nonpayable",
      "type": "constructor"
    },
    {
      "anonymous": false,
      "inputs": [
        {
          "indexed": false,
          "internalType": "uint256",
          "name": "_lastPrice",
          "type": "uint256"
        },
        {
          "indexed": false,
          "internalType": "uint256",
          "name": "_newPrice",
          "type": "uint256"
        },
        {
          "indexed": false,
          "internalType": "uint8",
          "name": "_round",
          "type": "uint8"
        }
      ],
      "name": "ChangePrice",
      "type": "event"
    },
    {
      "anonymous": false,
      "inputs": [
        {
          "indexed": false,
          "internalType": "bool",
          "name": "isStartTime",
          "type": "bool"
        },
        {
          "indexed": false,
          "internalType": "uint256",
          "name": "_lastTime",
          "type": "uint256"
        },
        {
          "indexed": false,
          "internalType": "uint256",
          "name": "_newTime",
          "type": "uint256"
        },
        {
          "indexed": false,
          "internalType": "uint8",
          "name": "_round",
          "type": "uint8"
        }
      ],
      "name": "ChangeRoundTime",
      "type": "event"
    },
    {
      "anonymous": false,
      "inputs": [
        {
          "indexed": true,
          "internalType": "address",
          "name": "oldOwner",
          "type": "address"
        },
        {
          "indexed": true,
          "internalType": "address",
          "name": "newOwner",
          "type": "address"
        }
      ],
      "name": "OwnerSet",
      "type": "event"
    },
    {
      "anonymous": false,
      "inputs": [
        {
          "indexed": false,
          "internalType": "uint8",
          "name": "_round",
          "type": "uint8"
        },
        {
          "indexed": false,
          "internalType": "uint256",
          "name": "_time",
          "type": "uint256"
        }
      ],
      "name": "PresaleRoundEnd",
      "type": "event"
    },
    {
      "anonymous": false,
      "inputs": [
        {
          "indexed": false,
          "internalType": "address",
          "name": "_sender",
          "type": "address"
        },
        {
          "indexed": false,
          "internalType": "uint256",
          "name": "_amount",
          "type": "uint256"
        }
      ],
      "name": "TransferPresaleToken",
      "type": "event"
    },
    {
      "anonymous": false,
      "inputs": [
        {
          "indexed": false,
          "internalType": "uint256",
          "name": "_amount",
          "type": "uint256"
        }
      ],
      "name": "WithdrawBNB",
      "type": "event"
    },
    {
      "stateMutability": "payable",
      "type": "fallback"
    },
    {
      "inputs": [
        {
          "components": [
            {
              "internalType": "uint8",
              "name": "series",
              "type": "uint8"
            },
            {
              "internalType": "string",
              "name": "uri",
              "type": "string"
            },
            {
              "internalType": "bool",
              "name": "sold",
              "type": "bool"
            }
          ],
          "internalType": "struct PresaleDIG.Golem",
          "name": "_golem",
          "type": "tuple"
        }
      ],
      "name": "addGolem",
      "outputs": [],
      "stateMutability": "nonpayable",
      "type": "function"
    },
    {
      "inputs": [
        {
          "components": [
            {
              "internalType": "uint8",
              "name": "series",
              "type": "uint8"
            },
            {
              "internalType": "string",
              "name": "uri",
              "type": "string"
            },
            {
              "internalType": "bool",
              "name": "sold",
              "type": "bool"
            }
          ],
          "internalType": "struct PresaleDIG.Golem[]",
          "name": "_golems",
          "type": "tuple[]"
        }
      ],
      "name": "addGolems",
      "outputs": [],
      "stateMutability": "nonpayable",
      "type": "function"
    },
    {
      "inputs": [],
      "name": "amountToBuyRound1",
      "outputs": [
        {
          "internalType": "uint16",
          "name": "",
          "type": "uint16"
        }
      ],
      "stateMutability": "view",
      "type": "function"
    },
    {
      "inputs": [],
      "name": "amountToBuyRound2",
      "outputs": [
        {
          "internalType": "uint16",
          "name": "",
          "type": "uint16"
        }
      ],
      "stateMutability": "view",
      "type": "function"
    },
    {
      "inputs": [],
      "name": "amountToBuyRound3",
      "outputs": [
        {
          "internalType": "uint16",
          "name": "",
          "type": "uint16"
        }
      ],
      "stateMutability": "view",
      "type": "function"
    },
    {
      "inputs": [
        {
          "internalType": "uint8",
          "name": "_v",
          "type": "uint8"
        },
        {
          "internalType": "bytes32",
          "name": "_r",
          "type": "bytes32"
        },
        {
          "internalType": "bytes32",
          "name": "_s",
          "type": "bytes32"
        }
      ],
      "name": "buyDIGRound1",
      "outputs": [],
      "stateMutability": "payable",
      "type": "function"
    },
    {
      "inputs": [
        {
          "internalType": "address",
          "name": "newOwner",
          "type": "address"
        }
      ],
      "name": "changeOwner",
      "outputs": [],
      "stateMutability": "nonpayable",
      "type": "function"
    },
    {
      "inputs": [
        {
          "internalType": "uint256",
          "name": "_price",
          "type": "uint256"
        }
      ],
      "name": "changePriceRound1",
      "outputs": [],
      "stateMutability": "nonpayable",
      "type": "function"
    },
    {
      "inputs": [
        {
          "internalType": "uint256",
          "name": "_price",
          "type": "uint256"
        }
      ],
      "name": "changePriceRound2",
      "outputs": [],
      "stateMutability": "nonpayable",
      "type": "function"
    },
    {
      "inputs": [
        {
          "internalType": "uint256",
          "name": "_price",
          "type": "uint256"
        }
      ],
      "name": "changePriceRound3",
      "outputs": [],
      "stateMutability": "nonpayable",
      "type": "function"
    },
    {
      "inputs": [
        {
          "internalType": "uint256",
          "name": "_time",
          "type": "uint256"
        }
      ],
      "name": "changeRound1EndTime",
      "outputs": [],
      "stateMutability": "nonpayable",
      "type": "function"
    },
    {
      "inputs": [
        {
          "internalType": "uint256",
          "name": "_time",
          "type": "uint256"
        }
      ],
      "name": "changeRound1StartTime",
      "outputs": [],
      "stateMutability": "nonpayable",
      "type": "function"
    },
    {
      "inputs": [
        {
          "internalType": "uint256",
          "name": "_time",
          "type": "uint256"
        }
      ],
      "name": "changeRound2EndTime",
      "outputs": [],
      "stateMutability": "nonpayable",
      "type": "function"
    },
    {
      "inputs": [
        {
          "internalType": "uint256",
          "name": "_time",
          "type": "uint256"
        }
      ],
      "name": "changeRound2StartTime",
      "outputs": [],
      "stateMutability": "nonpayable",
      "type": "function"
    },
    {
      "inputs": [
        {
          "internalType": "uint256",
          "name": "_time",
          "type": "uint256"
        }
      ],
      "name": "changeRound3EndTime",
      "outputs": [],
      "stateMutability": "nonpayable",
      "type": "function"
    },
    {
      "inputs": [
        {
          "internalType": "uint256",
          "name": "_time",
          "type": "uint256"
        }
      ],
      "name": "changeRound3StartTime",
      "outputs": [],
      "stateMutability": "nonpayable",
      "type": "function"
    },
    {
      "inputs": [
        {
          "internalType": "address",
          "name": "_new",
          "type": "address"
        }
      ],
      "name": "changeTokenAddress",
      "outputs": [],
      "stateMutability": "nonpayable",
      "type": "function"
    },
    {
      "inputs": [],
      "name": "closeRound1Presale",
      "outputs": [],
      "stateMutability": "nonpayable",
      "type": "function"
    },
    {
      "inputs": [],
      "name": "closeRound2Presale",
      "outputs": [],
      "stateMutability": "nonpayable",
      "type": "function"
    },
    {
      "inputs": [],
      "name": "closeRound3Presale",
      "outputs": [],
      "stateMutability": "nonpayable",
      "type": "function"
    },
    {
      "inputs": [],
      "name": "endTimeRound1",
      "outputs": [
        {
          "internalType": "uint256",
          "name": "",
          "type": "uint256"
        }
      ],
      "stateMutability": "view",
      "type": "function"
    },
    {
      "inputs": [],
      "name": "endTimeRound2",
      "outputs": [
        {
          "internalType": "uint256",
          "name": "",
          "type": "uint256"
        }
      ],
      "stateMutability": "view",
      "type": "function"
    },
    {
      "inputs": [],
      "name": "endTimeRound3",
      "outputs": [
        {
          "internalType": "uint256",
          "name": "",
          "type": "uint256"
        }
      ],
      "stateMutability": "view",
      "type": "function"
    },
    {
      "inputs": [],
      "name": "getDIG",
      "outputs": [
        {
          "internalType": "address",
          "name": "",
          "type": "address"
        }
      ],
      "stateMutability": "view",
      "type": "function"
    },
    {
      "inputs": [],
      "name": "getGolems",
      "outputs": [
        {
          "components": [
            {
              "internalType": "uint8",
              "name": "series",
              "type": "uint8"
            },
            {
              "internalType": "string",
              "name": "uri",
              "type": "string"
            },
            {
              "internalType": "bool",
              "name": "sold",
              "type": "bool"
            }
          ],
          "internalType": "struct PresaleDIG.Golem[]",
          "name": "",
          "type": "tuple[]"
        }
      ],
      "stateMutability": "view",
      "type": "function"
    },
    {
      "inputs": [],
      "name": "getOwner",
      "outputs": [
        {
          "internalType": "address",
          "name": "",
          "type": "address"
        }
      ],
      "stateMutability": "view",
      "type": "function"
    },
    {
      "inputs": [],
      "name": "getRound1EndTime",
      "outputs": [
        {
          "internalType": "uint256",
          "name": "",
          "type": "uint256"
        }
      ],
      "stateMutability": "view",
      "type": "function"
    },
    {
      "inputs": [],
      "name": "getRound1Price",
      "outputs": [
        {
          "internalType": "uint256",
          "name": "",
          "type": "uint256"
        }
      ],
      "stateMutability": "view",
      "type": "function"
    },
    {
      "inputs": [],
      "name": "getRound1StartTime",
      "outputs": [
        {
          "internalType": "uint256",
          "name": "",
          "type": "uint256"
        }
      ],
      "stateMutability": "view",
      "type": "function"
    },
    {
      "inputs": [],
      "name": "getRound2EndTime",
      "outputs": [
        {
          "internalType": "uint256",
          "name": "",
          "type": "uint256"
        }
      ],
      "stateMutability": "view",
      "type": "function"
    },
    {
      "inputs": [],
      "name": "getRound2Price",
      "outputs": [
        {
          "internalType": "uint256",
          "name": "",
          "type": "uint256"
        }
      ],
      "stateMutability": "view",
      "type": "function"
    },
    {
      "inputs": [],
      "name": "getRound2StartTime",
      "outputs": [
        {
          "internalType": "uint256",
          "name": "",
          "type": "uint256"
        }
      ],
      "stateMutability": "view",
      "type": "function"
    },
    {
      "inputs": [],
      "name": "getRound3EndTime",
      "outputs": [
        {
          "internalType": "uint256",
          "name": "",
          "type": "uint256"
        }
      ],
      "stateMutability": "view",
      "type": "function"
    },
    {
      "inputs": [],
      "name": "getRound3Price",
      "outputs": [
        {
          "internalType": "uint256",
          "name": "",
          "type": "uint256"
        }
      ],
      "stateMutability": "view",
      "type": "function"
    },
    {
      "inputs": [],
      "name": "getRound3StartTime",
      "outputs": [
        {
          "internalType": "uint256",
          "name": "",
          "type": "uint256"
        }
      ],
      "stateMutability": "view",
      "type": "function"
    },
    {
      "inputs": [],
      "name": "getSold",
      "outputs": [
        {
          "internalType": "uint256",
          "name": "",
          "type": "uint256"
        }
      ],
      "stateMutability": "view",
      "type": "function"
    },
    {
      "inputs": [],
      "name": "hasRound1Closed",
      "outputs": [
        {
          "internalType": "bool",
          "name": "",
          "type": "bool"
        }
      ],
      "stateMutability": "view",
      "type": "function"
    },
    {
      "inputs": [],
      "name": "hasRound2Closed",
      "outputs": [
        {
          "internalType": "bool",
          "name": "",
          "type": "bool"
        }
      ],
      "stateMutability": "view",
      "type": "function"
    },
    {
      "inputs": [],
      "name": "hasRound3Closed",
      "outputs": [
        {
          "internalType": "bool",
          "name": "",
          "type": "bool"
        }
      ],
      "stateMutability": "view",
      "type": "function"
    },
    {
      "inputs": [
        {
          "internalType": "address",
          "name": "_add",
          "type": "address"
        },
        {
          "internalType": "uint8",
          "name": "_v",
          "type": "uint8"
        },
        {
          "internalType": "bytes32",
          "name": "_r",
          "type": "bytes32"
        },
        {
          "internalType": "bytes32",
          "name": "_s",
          "type": "bytes32"
        }
      ],
      "name": "isValidAccessMessage",
      "outputs": [
        {
          "internalType": "bool",
          "name": "",
          "type": "bool"
        }
      ],
      "stateMutability": "view",
      "type": "function"
    },
    {
      "inputs": [
        {
          "internalType": "address",
          "name": "_add",
          "type": "address"
        },
        {
          "internalType": "uint8",
          "name": "_v",
          "type": "uint8"
        },
        {
          "internalType": "bytes32",
          "name": "_r",
          "type": "bytes32"
        },
        {
          "internalType": "bytes32",
          "name": "_s",
          "type": "bytes32"
        },
        {
          "internalType": "uint256",
          "name": "orderID",
          "type": "uint256"
        },
        {
          "internalType": "string",
          "name": "_tokenURI",
          "type": "string"
        }
      ],
      "name": "isValidMintMessage",
      "outputs": [
        {
          "internalType": "bool",
          "name": "",
          "type": "bool"
        }
      ],
      "stateMutability": "view",
      "type": "function"
    },
    {
      "inputs": [
        {
          "internalType": "uint256",
          "name": "_time",
          "type": "uint256"
        }
      ],
      "name": "mockRound1EndTime",
      "outputs": [],
      "stateMutability": "nonpayable",
      "type": "function"
    },
    {
      "inputs": [
        {
          "internalType": "uint256",
          "name": "_time",
          "type": "uint256"
        }
      ],
      "name": "mockRound1StartTime",
      "outputs": [],
      "stateMutability": "nonpayable",
      "type": "function"
    },
    {
      "inputs": [
        {
          "internalType": "uint256",
          "name": "_time",
          "type": "uint256"
        }
      ],
      "name": "mockRound2EndTime",
      "outputs": [],
      "stateMutability": "nonpayable",
      "type": "function"
    },
    {
      "inputs": [
        {
          "internalType": "uint256",
          "name": "_time",
          "type": "uint256"
        }
      ],
      "name": "mockRound2StartTime",
      "outputs": [],
      "stateMutability": "nonpayable",
      "type": "function"
    },
    {
      "inputs": [
        {
          "internalType": "uint256",
          "name": "_time",
          "type": "uint256"
        }
      ],
      "name": "mockRound3EndTime",
      "outputs": [],
      "stateMutability": "nonpayable",
      "type": "function"
    },
    {
      "inputs": [
        {
          "internalType": "uint256",
          "name": "_time",
          "type": "uint256"
        }
      ],
      "name": "mockRound3StartTime",
      "outputs": [],
      "stateMutability": "nonpayable",
      "type": "function"
    },
    {
      "inputs": [],
      "name": "priceRound1",
      "outputs": [
        {
          "internalType": "uint256",
          "name": "",
          "type": "uint256"
        }
      ],
      "stateMutability": "view",
      "type": "function"
    },
    {
      "inputs": [],
      "name": "priceRound2",
      "outputs": [
        {
          "internalType": "uint256",
          "name": "",
          "type": "uint256"
        }
      ],
      "stateMutability": "view",
      "type": "function"
    },
    {
      "inputs": [],
      "name": "priceRound3",
      "outputs": [
        {
          "internalType": "uint256",
          "name": "",
          "type": "uint256"
        }
      ],
      "stateMutability": "view",
      "type": "function"
    },
    {
      "inputs": [],
      "name": "returnVALUE",
      "outputs": [
        {
          "internalType": "uint8",
          "name": "",
          "type": "uint8"
        }
      ],
      "stateMutability": "payable",
      "type": "function"
    },
    {
      "inputs": [],
      "name": "round1End",
      "outputs": [
        {
          "internalType": "bool",
          "name": "",
          "type": "bool"
        }
      ],
      "stateMutability": "view",
      "type": "function"
    },
    {
      "inputs": [],
      "name": "round2End",
      "outputs": [
        {
          "internalType": "bool",
          "name": "",
          "type": "bool"
        }
      ],
      "stateMutability": "view",
      "type": "function"
    },
    {
      "inputs": [],
      "name": "round3End",
      "outputs": [
        {
          "internalType": "bool",
          "name": "",
          "type": "bool"
        }
      ],
      "stateMutability": "view",
      "type": "function"
    },
    {
      "inputs": [],
      "name": "startTimeRound1",
      "outputs": [
        {
          "internalType": "uint256",
          "name": "",
          "type": "uint256"
        }
      ],
      "stateMutability": "view",
      "type": "function"
    },
    {
      "inputs": [],
      "name": "startTimeRound2",
      "outputs": [
        {
          "internalType": "uint256",
          "name": "",
          "type": "uint256"
        }
      ],
      "stateMutability": "view",
      "type": "function"
    },
    {
      "inputs": [],
      "name": "startTimeRound3",
      "outputs": [
        {
          "internalType": "uint256",
          "name": "",
          "type": "uint256"
        }
      ],
      "stateMutability": "view",
      "type": "function"
    },
    {
      "inputs": [],
      "name": "tokenSold",
      "outputs": [
        {
          "internalType": "uint256",
          "name": "",
          "type": "uint256"
        }
      ],
      "stateMutability": "view",
      "type": "function"
    },
    {
      "stateMutability": "payable",
      "type": "receive"
    }
  ],
  "bytecode": "0x60806040523480156200001157600080fd5b506040516200514b3803806200514b833981810160405281019062000037919062000a0f565b336000806101000a81548173ffffffffffffffffffffffffffffffffffffffff021916908373ffffffffffffffffffffffffffffffffffffffff16021790555060008054906101000a900473ffffffffffffffffffffffffffffffffffffffff1673ffffffffffffffffffffffffffffffffffffffff16600073ffffffffffffffffffffffffffffffffffffffff167f342827c97908e5e2f71151c08502a66d44b6f758e3ac2f1de95f02eb95f0a73560405160405180910390a3600073ffffffffffffffffffffffffffffffffffffffff168673ffffffffffffffffffffffffffffffffffffffff16141562000165576040517f08c379a00000000000000000000000000000000000000000000000000000000081526004016200015c9062000b88565b60405180910390fd5b60038551146200017457600080fd5b60038451146200018357600080fd5b60038251146200019257600080fd5b6003815114620001a157600080fd5b60005b60038160ff161015620002b35742868260ff1681518110620001cb57620001ca62000baa565b5b6020026020010151101562000217576040517f08c379a00000000000000000000000000000000000000000000000000000000081526004016200020e9062000c29565b60405180910390fd5b858160ff168151811062000230576200022f62000baa565b5b6020026020010151858260ff168151811062000251576200025062000baa565b5b602002602001015110156200029d576040517f08c379a0000000000000000000000000000000000000000000000000000000008152600401620002949062000c9b565b60405180910390fd5b8080620002aa9062000cf9565b915050620001a4565b5060005b60038160ff16101562000340576000838260ff1681518110620002df57620002de62000baa565b5b6020026020010151116200032a576040517f08c379a0000000000000000000000000000000000000000000000000000000008152600401620003219062000d78565b60405180910390fd5b8080620003379062000cf9565b915050620002b7565b5060005b60038160ff161015620003d1576000828260ff16815181106200036c576200036b62000baa565b5b602002602001015161ffff1611620003bb576040517f08c379a0000000000000000000000000000000000000000000000000000000008152600401620003b29062000dea565b60405180910390fd5b8080620003c89062000cf9565b91505062000344565b50600073ffffffffffffffffffffffffffffffffffffffff168373ffffffffffffffffffffffffffffffffffffffff16141562000445576040517f08c379a00000000000000000000000000000000000000000000000000000000081526004016200043c9062000e5c565b60405180910390fd5b85600260006101000a81548173ffffffffffffffffffffffffffffffffffffffff021916908373ffffffffffffffffffffffffffffffffffffffff160217905550846000815181106200049d576200049c62000baa565b5b602002602001015160038190555083600081518110620004c257620004c162000baa565b5b602002602001015160048190555084600181518110620004e757620004e662000baa565b5b6020026020010151600781905550836001815181106200050c576200050b62000baa565b5b60200260200101516008819055508460028151811062000531576200053062000baa565b5b6020026020010151600b819055508360028151811062000556576200055562000baa565b5b6020026020010151600c81905550816000815181106200057b576200057a62000baa565b5b602002602001015160058190555081600181518110620005a0576200059f62000baa565b5b602002602001015160098190555081600281518110620005c557620005c462000baa565b5b6020026020010151600d8190555080600081518110620005ea57620005e962000baa565b5b6020026020010151600660016101000a81548161ffff021916908361ffff1602179055508060018151811062000625576200062462000baa565b5b6020026020010151600a60016101000a81548161ffff021916908361ffff1602179055508060028151811062000660576200065f62000baa565b5b6020026020010151600e60016101000a81548161ffff021916908361ffff16021790555082601060006101000a81548173ffffffffffffffffffffffffffffffffffffffff021916908373ffffffffffffffffffffffffffffffffffffffff16021790555050505050505062000e7e565b6000604051905090565b600080fd5b600080fd5b600073ffffffffffffffffffffffffffffffffffffffff82169050919050565b60006200071282620006e5565b9050919050565b620007248162000705565b81146200073057600080fd5b50565b600081519050620007448162000719565b92915050565b600080fd5b6000601f19601f8301169050919050565b7f4e487b7100000000000000000000000000000000000000000000000000000000600052604160045260246000fd5b6200079a826200074f565b810181811067ffffffffffffffff82111715620007bc57620007bb62000760565b5b80604052505050565b6000620007d1620006d1565b9050620007df82826200078f565b919050565b600067ffffffffffffffff82111562000802576200080162000760565b5b602082029050602081019050919050565b600080fd5b6000819050919050565b6200082d8162000818565b81146200083957600080fd5b50565b6000815190506200084d8162000822565b92915050565b60006200086a6200086484620007e4565b620007c5565b9050808382526020820190506020840283018581111562000890576200088f62000813565b5b835b81811015620008bd5780620008a888826200083c565b84526020840193505060208101905062000892565b5050509392505050565b600082601f830112620008df57620008de6200074a565b5b8151620008f184826020860162000853565b91505092915050565b600067ffffffffffffffff82111562000918576200091762000760565b5b602082029050602081019050919050565b600061ffff82169050919050565b620009428162000929565b81146200094e57600080fd5b50565b600081519050620009628162000937565b92915050565b60006200097f6200097984620008fa565b620007c5565b90508083825260208201905060208402830185811115620009a557620009a462000813565b5b835b81811015620009d25780620009bd888262000951565b845260208401935050602081019050620009a7565b5050509392505050565b600082601f830112620009f457620009f36200074a565b5b815162000a0684826020860162000968565b91505092915050565b60008060008060008060c0878903121562000a2f5762000a2e620006db565b5b600062000a3f89828a0162000733565b965050602087015167ffffffffffffffff81111562000a635762000a62620006e0565b5b62000a7189828a01620008c7565b955050604087015167ffffffffffffffff81111562000a955762000a94620006e0565b5b62000aa389828a01620008c7565b945050606062000ab689828a0162000733565b935050608087015167ffffffffffffffff81111562000ada5762000ad9620006e0565b5b62000ae889828a01620008c7565b92505060a087015167ffffffffffffffff81111562000b0c5762000b0b620006e0565b5b62000b1a89828a01620009dc565b9150509295509295509295565b600082825260208201905092915050565b7f546f6b656e206973206e6f742061646472657373283029000000000000000000600082015250565b600062000b7060178362000b27565b915062000b7d8262000b38565b602082019050919050565b6000602082019050818103600083015262000ba38162000b61565b9050919050565b7f4e487b7100000000000000000000000000000000000000000000000000000000600052603260045260246000fd5b7f53746172742074696d6520696e20706173740000000000000000000000000000600082015250565b600062000c1160128362000b27565b915062000c1e8262000bd9565b602082019050919050565b6000602082019050818103600083015262000c448162000c02565b9050919050565b7f456e642074696d65206973206c6573732073746172742074696d650000000000600082015250565b600062000c83601b8362000b27565b915062000c908262000c4b565b602082019050919050565b6000602082019050818103600083015262000cb68162000c74565b9050919050565b7f4e487b7100000000000000000000000000000000000000000000000000000000600052601160045260246000fd5b600060ff82169050919050565b600062000d068262000cec565b915060ff82141562000d1d5762000d1c62000cbd565b5b600182019050919050565b7f50726963652063616e2774206265206c657373207468616e2030000000000000600082015250565b600062000d60601a8362000b27565b915062000d6d8262000d28565b602082019050919050565b6000602082019050818103600083015262000d938162000d51565b9050919050565b7f416d6f756e742063616e2774206265206c657373207468616e20300000000000600082015250565b600062000dd2601b8362000b27565b915062000ddf8262000d9a565b602082019050919050565b6000602082019050818103600083015262000e058162000dc3565b9050919050565b7f57616c6c6574206973206e6f7420616464726573732830290000000000000000600082015250565b600062000e4460188362000b27565b915062000e518262000e0c565b602082019050919050565b6000602082019050818103600083015262000e778162000e35565b9050919050565b6142bd8062000e8e6000396000f3fe6080604052600436106103855760003560e01c80637a0846d8116101d1578063b53cdf0c11610102578063d30038ae116100a0578063d8e3cd781161006f578063d8e3cd7814610c5c578063d961596014610c85578063dc989bea14610cb0578063f6d8906d14610cc75761038c565b8063d30038ae14610bb4578063d3ca20e714610bdf578063d3f60d9c14610c08578063d5910eed14610c335761038c565b8063c6b589b2116100dc578063c6b589b214610b22578063c9cda91f14610b39578063ce8ee11f14610b62578063d22ecc4a14610b8b5761038c565b8063b53cdf0c14610ab0578063b8222dd514610ace578063ba53299714610af75761038c565b806393f70afa1161016f578063a6f9dae111610149578063a6f9dae114610a08578063ae2fa48214610a31578063afd84c0714610a5c578063b1fca95614610a855761038c565b806393f70afa14610989578063965468a4146109b4578063968a6642146109df5761038c565b8063893d20e8116101ab578063893d20e8146108df5780638b3c88631461090a5780638cca5255146109355780638f282b871461095e5761038c565b80637a0846d81461085e5780637f38be1314610889578063847d34fb146108b45761038c565b806340bc9308116102b657806353763be3116102545780635fbd8a79116102235780635fbd8a79146107ca57806363a0f77e146107f3578063657128c21461080a5780636ba99c29146108355761038c565b806353763be31461072f5780635503621414610758578063581c0ab3146107835780635ce8d647146107ae5761038c565b80634ac0ab1c116102905780634ac0ab1c146106835780634b9de81e146106ae57806350aa75ad146106d9578063519ee19e146107045761038c565b806340bc930814610602578063488751ea1461062d5780634a797494146106585761038c565b80632457e5901161032357806327408619116102fd57806327408619146105465780632a92557c14610571578063326241141461059a5780633b4b76dc146105d75761038c565b80632457e590146104c5578063254e9e2e146104f057806325a449f71461051b5761038c565b8063171318621161035f578063171318621461040b5780631a933084146104345780631ae6923b1461045f5780631cd14eed146104885761038c565b806302d27d571461038e57806309fed81e146103b7578063135ed7bd146103e05761038c565b3661038c57005b005b34801561039a57600080fd5b506103b560048036038101906103b09190612e34565b610cf2565b005b3480156103c357600080fd5b506103de60048036038101906103d99190612e34565b610e14565b005b3480156103ec57600080fd5b506103f5610f36565b6040516104029190612e70565b60405180910390f35b34801561041757600080fd5b50610432600480360381019061042d9190612e34565b610f3c565b005b34801561044057600080fd5b50610449611060565b6040516104569190612ea8565b60405180910390f35b34801561046b57600080fd5b5061048660048036038101906104819190612e34565b611074565b005b34801561049457600080fd5b506104af60048036038101906104aa91906130d6565b611193565b6040516104bc919061319a565b60405180910390f35b3480156104d157600080fd5b506104da611295565b6040516104e79190612e70565b60405180910390f35b3480156104fc57600080fd5b5061050561129f565b6040516105129190612e70565b60405180910390f35b34801561052757600080fd5b506105306112a5565b60405161053d9190612e70565b60405180910390f35b34801561055257600080fd5b5061055b6112af565b604051610568919061319a565b60405180910390f35b34801561057d57600080fd5b5061059860048036038101906105939190612e34565b6112bb565b005b3480156105a657600080fd5b506105c160048036038101906105bc91906131b5565b611353565b6040516105ce919061319a565b60405180910390f35b3480156105e357600080fd5b506105ec61144f565b6040516105f9919061319a565b60405180910390f35b34801561060e57600080fd5b5061061761145b565b6040516106249190612e70565b60405180910390f35b34801561063957600080fd5b50610642611461565b60405161064f9190612e70565b60405180910390f35b34801561066457600080fd5b5061066d61146b565b60405161067a9190612e70565b60405180910390f35b34801561068f57600080fd5b50610698611471565b6040516106a5919061319a565b60405180910390f35b3480156106ba57600080fd5b506106c3611484565b6040516106d09190612e70565b60405180910390f35b3480156106e557600080fd5b506106ee61148a565b6040516106fb9190612ea8565b60405180910390f35b34801561071057600080fd5b5061071961149e565b6040516107269190612e70565b60405180910390f35b34801561073b57600080fd5b5061075660048036038101906107519190612e34565b6114a4565b005b34801561076457600080fd5b5061076d6115c3565b60405161077a9190612e70565b60405180910390f35b34801561078f57600080fd5b506107986115c9565b6040516107a5919061319a565b60405180910390f35b6107c860048036038101906107c3919061321c565b6115d5565b005b3480156107d657600080fd5b506107f160048036038101906107ec9190612e34565b6119d8565b005b3480156107ff57600080fd5b50610808611a70565b005b34801561081657600080fd5b5061081f611b55565b60405161082c919061319a565b60405180910390f35b34801561084157600080fd5b5061085c60048036038101906108579190612e34565b611b68565b005b34801561086a57600080fd5b50610873611c00565b6040516108809190612e70565b60405180910390f35b34801561089557600080fd5b5061089e611c0a565b6040516108ab9190612e70565b60405180910390f35b3480156108c057600080fd5b506108c9611c14565b6040516108d6919061319a565b60405180910390f35b3480156108eb57600080fd5b506108f4611c27565b604051610901919061327e565b60405180910390f35b34801561091657600080fd5b5061091f611c50565b60405161092c9190612e70565b60405180910390f35b34801561094157600080fd5b5061095c60048036038101906109579190612e34565b611c5a565b005b34801561096a57600080fd5b50610973611d7e565b6040516109809190612e70565b60405180910390f35b34801561099557600080fd5b5061099e611e17565b6040516109ab9190612ea8565b60405180910390f35b3480156109c057600080fd5b506109c9611e2b565b6040516109d6919061327e565b60405180910390f35b3480156109eb57600080fd5b50610a066004803603810190610a01919061334f565b611e55565b005b348015610a1457600080fd5b50610a2f6004803603810190610a2a9190613398565b611f7c565b005b348015610a3d57600080fd5b50610a466120c7565b604051610a53919061357d565b60405180910390f35b348015610a6857600080fd5b50610a836004803603810190610a7e9190613685565b6122f5565b005b348015610a9157600080fd5b50610a9a612456565b604051610aa79190612e70565b60405180910390f35b610ab861245c565b604051610ac591906136dd565b60405180910390f35b348015610ada57600080fd5b50610af56004803603810190610af09190612e34565b612471565b005b348015610b0357600080fd5b50610b0c612593565b604051610b199190612e70565b60405180910390f35b348015610b2e57600080fd5b50610b3761259d565b005b348015610b4557600080fd5b50610b606004803603810190610b5b9190613398565b612682565b005b348015610b6e57600080fd5b50610b896004803603810190610b849190612e34565b612754565b005b348015610b9757600080fd5b50610bb26004803603810190610bad9190612e34565b612873565b005b348015610bc057600080fd5b50610bc9612997565b604051610bd69190612e70565b60405180910390f35b348015610beb57600080fd5b50610c066004803603810190610c019190612e34565b6129a1565b005b348015610c1457600080fd5b50610c1d612a39565b604051610c2a9190612e70565b60405180910390f35b348015610c3f57600080fd5b50610c5a6004803603810190610c559190612e34565b612a3f565b005b348015610c6857600080fd5b50610c836004803603810190610c7e9190612e34565b612ad7565b005b348015610c9157600080fd5b50610c9a612b6f565b604051610ca79190612e70565b60405180910390f35b348015610cbc57600080fd5b50610cc5612b79565b005b348015610cd357600080fd5b50610cdc612c5e565b604051610ce99190612e70565b60405180910390f35b60008054906101000a900473ffffffffffffffffffffffffffffffffffffffff1673ffffffffffffffffffffffffffffffffffffffff163373ffffffffffffffffffffffffffffffffffffffff1614610d80576040517f08c379a0000000000000000000000000000000000000000000000000000000008152600401610d7790613755565b60405180910390fd5b42811015610dc3576040517f08c379a0000000000000000000000000000000000000000000000000000000008152600401610dba906137c1565b60405180910390fd5b60006003549050816003819055507f08af1cc7b8c402aaf7010b1c45262b28ae2a565b9c75c9f38881475f6d0ba761600182846001604051610e089493929190613826565b60405180910390a15050565b60008054906101000a900473ffffffffffffffffffffffffffffffffffffffff1673ffffffffffffffffffffffffffffffffffffffff163373ffffffffffffffffffffffffffffffffffffffff1614610ea2576040517f08c379a0000000000000000000000000000000000000000000000000000000008152600401610e9990613755565b60405180910390fd5b42811015610ee5576040517f08c379a0000000000000000000000000000000000000000000000000000000008152600401610edc906137c1565b60405180910390fd5b6000600b54905081600b819055507f08af1cc7b8c402aaf7010b1c45262b28ae2a565b9c75c9f38881475f6d0ba761600182846003604051610f2a94939291906138a6565b60405180910390a15050565b60055481565b60008054906101000a900473ffffffffffffffffffffffffffffffffffffffff1673ffffffffffffffffffffffffffffffffffffffff163373ffffffffffffffffffffffffffffffffffffffff1614610fca576040517f08c379a0000000000000000000000000000000000000000000000000000000008152600401610fc190613755565b60405180910390fd5b600b5481101561100f576040517f08c379a000000000000000000000000000000000000000000000000000000000815260040161100690613937565b60405180910390fd5b6000600b54905081600c819055507f08af1cc7b8c402aaf7010b1c45262b28ae2a565b9c75c9f38881475f6d0ba76160008284600360405161105494939291906138a6565b60405180910390a15050565b600e60019054906101000a900461ffff1681565b60008054906101000a900473ffffffffffffffffffffffffffffffffffffffff1673ffffffffffffffffffffffffffffffffffffffff163373ffffffffffffffffffffffffffffffffffffffff1614611102576040517f08c379a00000000000000000000000000000000000000000000000000000000081526004016110f990613755565b60405180910390fd5b60008111611145576040517f08c379a000000000000000000000000000000000000000000000000000000000815260040161113c906139a3565b60405180910390fd5b6000600d54905081600d819055507f8cda8222cc736ded38eeb2ebe6ba1382e16a036039985767a9369e6f8743b19481836001604051611187939291906139c3565b60405180910390a15050565b6000803083858a6040516020016111ad9493929190613a9f565b6040516020818303038152906040528051906020012090506001816040516020016111d89190613b56565b604051602081830303815290604052805190602001208888886040516000815260200160405260405161120e9493929190613b8b565b6020604051602081039080840390855afa158015611230573d6000803e3d6000fd5b5050506020604051035173ffffffffffffffffffffffffffffffffffffffff1660008054906101000a900473ffffffffffffffffffffffffffffffffffffffff1673ffffffffffffffffffffffffffffffffffffffff16149150509695505050505050565b6000600354905090565b600c5481565b6000600854905090565b6000600c544211905090565b60008054906101000a900473ffffffffffffffffffffffffffffffffffffffff1673ffffffffffffffffffffffffffffffffffffffff163373ffffffffffffffffffffffffffffffffffffffff1614611349576040517f08c379a000000000000000000000000000000000000000000000000000000000815260040161134090613755565b60405180910390fd5b8060048190555050565b6000803086604051602001611369929190613bd0565b6040516020818303038152906040528051906020012090506001816040516020016113949190613b56565b60405160208183030381529060405280519060200120868686604051600081526020016040526040516113ca9493929190613b8b565b6020604051602081039080840390855afa1580156113ec573d6000803e3d6000fd5b5050506020604051035173ffffffffffffffffffffffffffffffffffffffff1660008054906101000a900473ffffffffffffffffffffffffffffffffffffffff1673ffffffffffffffffffffffffffffffffffffffff1614915050949350505050565b60006008544211905090565b60035481565b6000600b54905090565b600d5481565b600660009054906101000a900460ff1681565b60085481565b600660019054906101000a900461ffff1681565b600f5481565b60008054906101000a900473ffffffffffffffffffffffffffffffffffffffff1673ffffffffffffffffffffffffffffffffffffffff163373ffffffffffffffffffffffffffffffffffffffff1614611532576040517f08c379a000000000000000000000000000000000000000000000000000000000815260040161152990613755565b60405180910390fd5b60008111611575576040517f08c379a000000000000000000000000000000000000000000000000000000000815260040161156c906139a3565b60405180910390fd5b60006009549050816009819055507f8cda8222cc736ded38eeb2ebe6ba1382e16a036039985767a9369e6f8743b194818360016040516115b7939291906139c3565b60405180910390a15050565b60095481565b60006004544211905090565b8282826115e433848484611353565b611623576040517f08c379a000000000000000000000000000000000000000000000000000000000815260040161161a90613c48565b60405180910390fd5b60011515600660009054906101000a900460ff161515141561167a576040517f08c379a000000000000000000000000000000000000000000000000000000000815260040161167190613cb4565b60405180910390fd5b600354421015801561168e57506004544211155b6116cd576040517f08c379a00000000000000000000000000000000000000000000000000000000081526004016116c490613d46565b60405180910390fd5b600660019054906101000a900461ffff1661ffff16600f5410611725576040517f08c379a000000000000000000000000000000000000000000000000000000000815260040161171c90613db2565b60405180910390fd5b60055434101561176a576040517f08c379a000000000000000000000000000000000000000000000000000000000815260040161176190613e1e565b60405180910390fd5b60006005543461177a9190613e9c565b90506000601060009054906101000a900473ffffffffffffffffffffffffffffffffffffffff1673ffffffffffffffffffffffffffffffffffffffff16346040516117c490613efe565b60006040518083038185875af1925050503d8060008114611801576040519150601f19603f3d011682016040523d82523d6000602084013e611806565b606091505b505090508061184a576040517f08c379a000000000000000000000000000000000000000000000000000000000815260040161184190613f5f565b60405180910390fd5b60005b8260ff168160ff16101561193f576000611865612c64565b9050600260009054906101000a900473ffffffffffffffffffffffffffffffffffffffff1673ffffffffffffffffffffffffffffffffffffffff16638d7f5ae0336040518263ffffffff1660e01b81526004016118c2919061327e565b600060405180830381600087803b1580156118dc57600080fd5b505af11580156118f0573d6000803e3d6000fd5b505050506001601160008361ffff1661ffff16815260200190815260200160002060020160006101000a81548160ff02191690831515021790555050808061193790613f7f565b91505061184d565b506119588260ff16600f54612cd190919063ffffffff16565b600f819055507f2e2c7c37facc49beee8cf3642a3d75804e6e3651d595261095101e38bba05d3a3460405161198d9190612e70565b60405180910390a17f37d00317365c87f2e5b3cf5675ea7d3fb47ba4f5f9775c33483f95d3baa5467433836040516119c6929190613fda565b60405180910390a15050505050505050565b60008054906101000a900473ffffffffffffffffffffffffffffffffffffffff1673ffffffffffffffffffffffffffffffffffffffff163373ffffffffffffffffffffffffffffffffffffffff1614611a66576040517f08c379a0000000000000000000000000000000000000000000000000000000008152600401611a5d90613755565b60405180910390fd5b8060078190555050565b60008054906101000a900473ffffffffffffffffffffffffffffffffffffffff1673ffffffffffffffffffffffffffffffffffffffff163373ffffffffffffffffffffffffffffffffffffffff1614611afe576040517f08c379a0000000000000000000000000000000000000000000000000000000008152600401611af590613755565b60405180910390fd5b6001600a60006101000a81548160ff0219169083151502179055507f490e422bf186e7b9c5bf929b7a168121e85d87907bfa65d128fcb133b579b79c600242604051611b4b92919061403e565b60405180910390a1565b600e60009054906101000a900460ff1681565b60008054906101000a900473ffffffffffffffffffffffffffffffffffffffff1673ffffffffffffffffffffffffffffffffffffffff163373ffffffffffffffffffffffffffffffffffffffff1614611bf6576040517f08c379a0000000000000000000000000000000000000000000000000000000008152600401611bed90613755565b60405180910390fd5b80600c8190555050565b6000600454905090565b6000600754905090565b600a60009054906101000a900460ff1681565b60008060009054906101000a900473ffffffffffffffffffffffffffffffffffffffff16905090565b6000600954905090565b60008054906101000a900473ffffffffffffffffffffffffffffffffffffffff1673ffffffffffffffffffffffffffffffffffffffff163373ffffffffffffffffffffffffffffffffffffffff1614611ce8576040517f08c379a0000000000000000000000000000000000000000000000000000000008152600401611cdf90613755565b60405180910390fd5b600754811015611d2d576040517f08c379a0000000000000000000000000000000000000000000000000000000008152600401611d2490613937565b60405180910390fd5b60006007549050816008819055507f08af1cc7b8c402aaf7010b1c45262b28ae2a565b9c75c9f38881475f6d0ba761600082846002604051611d729493929190614067565b60405180910390a15050565b60008060009054906101000a900473ffffffffffffffffffffffffffffffffffffffff1673ffffffffffffffffffffffffffffffffffffffff163373ffffffffffffffffffffffffffffffffffffffff1614611e0f576040517f08c379a0000000000000000000000000000000000000000000000000000000008152600401611e0690613755565b60405180910390fd5b600f54905090565b600a60019054906101000a900461ffff1681565b6000600260009054906101000a900473ffffffffffffffffffffffffffffffffffffffff16905090565b60008054906101000a900473ffffffffffffffffffffffffffffffffffffffff1673ffffffffffffffffffffffffffffffffffffffff163373ffffffffffffffffffffffffffffffffffffffff1614611ee3576040517f08c379a0000000000000000000000000000000000000000000000000000000008152600401611eda90613755565b60405180910390fd5b6000611eef6001612cfd565b905081601160008361ffff1661ffff16815260200190815260200160002060008201518160000160006101000a81548160ff021916908360ff1602179055506020820151816001019080519060200190611f4a929190612d21565b5060408201518160020160006101000a81548160ff021916908315150217905550905050611f786001612d0b565b5050565b60008054906101000a900473ffffffffffffffffffffffffffffffffffffffff1673ffffffffffffffffffffffffffffffffffffffff163373ffffffffffffffffffffffffffffffffffffffff161461200a576040517f08c379a000000000000000000000000000000000000000000000000000000000815260040161200190613755565b60405180910390fd5b8073ffffffffffffffffffffffffffffffffffffffff1660008054906101000a900473ffffffffffffffffffffffffffffffffffffffff1673ffffffffffffffffffffffffffffffffffffffff167f342827c97908e5e2f71151c08502a66d44b6f758e3ac2f1de95f02eb95f0a73560405160405180910390a3806000806101000a81548173ffffffffffffffffffffffffffffffffffffffff021916908373ffffffffffffffffffffffffffffffffffffffff16021790555050565b606060008054906101000a900473ffffffffffffffffffffffffffffffffffffffff1673ffffffffffffffffffffffffffffffffffffffff163373ffffffffffffffffffffffffffffffffffffffff1614612157576040517f08c379a000000000000000000000000000000000000000000000000000000000815260040161214e90613755565b60405180910390fd5b60006121636001612cfd565b67ffffffffffffffff81111561217c5761217b612fab565b5b6040519080825280602002602001820160405280156121b557816020015b6121a2612da7565b81526020019060019003908161219a5790505b50905060005b81518161ffff1610156122ed57601160008261ffff1661ffff1681526020019081526020016000206040518060600160405290816000820160009054906101000a900460ff1660ff1660ff16815260200160018201805461221b906140db565b80601f0160208091040260200160405190810160405280929190818152602001828054612247906140db565b80156122945780601f1061226957610100808354040283529160200191612294565b820191906000526020600020905b81548152906001019060200180831161227757829003601f168201915b505050505081526020016002820160009054906101000a900460ff161515151581525050828261ffff16815181106122cf576122ce61410d565b5b602002602001018190525080806122e59061413c565b9150506121bb565b508091505090565b60008054906101000a900473ffffffffffffffffffffffffffffffffffffffff1673ffffffffffffffffffffffffffffffffffffffff163373ffffffffffffffffffffffffffffffffffffffff1614612383576040517f08c379a000000000000000000000000000000000000000000000000000000000815260040161237a90613755565b60405180910390fd5b60005b815181101561245257600061239b6001612cfd565b90508282815181106123b0576123af61410d565b5b6020026020010151601160008361ffff1661ffff16815260200190815260200160002060008201518160000160006101000a81548160ff021916908360ff1602179055506020820151816001019080519060200190612410929190612d21565b5060408201518160020160006101000a81548160ff02191690831515021790555090505061243e6001612d0b565b50808061244a90614167565b915050612386565b5050565b60045481565b60006005543461246c9190613e9c565b905090565b60008054906101000a900473ffffffffffffffffffffffffffffffffffffffff1673ffffffffffffffffffffffffffffffffffffffff163373ffffffffffffffffffffffffffffffffffffffff16146124ff576040517f08c379a00000000000000000000000000000000000000000000000000000000081526004016124f690613755565b60405180910390fd5b42811015612542576040517f08c379a0000000000000000000000000000000000000000000000000000000008152600401612539906137c1565b60405180910390fd5b60006007549050816007819055507f08af1cc7b8c402aaf7010b1c45262b28ae2a565b9c75c9f38881475f6d0ba7616001828460026040516125879493929190614067565b60405180910390a15050565b6000600c54905090565b60008054906101000a900473ffffffffffffffffffffffffffffffffffffffff1673ffffffffffffffffffffffffffffffffffffffff163373ffffffffffffffffffffffffffffffffffffffff161461262b576040517f08c379a000000000000000000000000000000000000000000000000000000000815260040161262290613755565b60405180910390fd5b6001600e60006101000a81548160ff0219169083151502179055507f490e422bf186e7b9c5bf929b7a168121e85d87907bfa65d128fcb133b579b79c6003426040516126789291906141b0565b60405180910390a1565b60008054906101000a900473ffffffffffffffffffffffffffffffffffffffff1673ffffffffffffffffffffffffffffffffffffffff163373ffffffffffffffffffffffffffffffffffffffff1614612710576040517f08c379a000000000000000000000000000000000000000000000000000000000815260040161270790613755565b60405180910390fd5b80600260006101000a81548173ffffffffffffffffffffffffffffffffffffffff021916908373ffffffffffffffffffffffffffffffffffffffff16021790555050565b60008054906101000a900473ffffffffffffffffffffffffffffffffffffffff1673ffffffffffffffffffffffffffffffffffffffff163373ffffffffffffffffffffffffffffffffffffffff16146127e2576040517f08c379a00000000000000000000000000000000000000000000000000000000081526004016127d990613755565b60405180910390fd5b60008111612825576040517f08c379a000000000000000000000000000000000000000000000000000000000815260040161281c906139a3565b60405180910390fd5b60006005549050816005819055507f8cda8222cc736ded38eeb2ebe6ba1382e16a036039985767a9369e6f8743b19481836001604051612867939291906139c3565b60405180910390a15050565b60008054906101000a900473ffffffffffffffffffffffffffffffffffffffff1673ffffffffffffffffffffffffffffffffffffffff163373ffffffffffffffffffffffffffffffffffffffff1614612901576040517f08c379a00000000000000000000000000000000000000000000000000000000081526004016128f890613755565b60405180910390fd5b600354811015612946576040517f08c379a000000000000000000000000000000000000000000000000000000000815260040161293d90613937565b60405180910390fd5b60006003549050816004819055507f08af1cc7b8c402aaf7010b1c45262b28ae2a565b9c75c9f38881475f6d0ba76160008284600160405161298b9493929190613826565b60405180910390a15050565b6000600554905090565b60008054906101000a900473ffffffffffffffffffffffffffffffffffffffff1673ffffffffffffffffffffffffffffffffffffffff163373ffffffffffffffffffffffffffffffffffffffff1614612a2f576040517f08c379a0000000000000000000000000000000000000000000000000000000008152600401612a2690613755565b60405180910390fd5b80600b8190555050565b60075481565b60008054906101000a900473ffffffffffffffffffffffffffffffffffffffff1673ffffffffffffffffffffffffffffffffffffffff163373ffffffffffffffffffffffffffffffffffffffff1614612acd576040517f08c379a0000000000000000000000000000000000000000000000000000000008152600401612ac490613755565b60405180910390fd5b8060088190555050565b60008054906101000a900473ffffffffffffffffffffffffffffffffffffffff1673ffffffffffffffffffffffffffffffffffffffff163373ffffffffffffffffffffffffffffffffffffffff1614612b65576040517f08c379a0000000000000000000000000000000000000000000000000000000008152600401612b5c90613755565b60405180910390fd5b8060038190555050565b6000600d54905090565b60008054906101000a900473ffffffffffffffffffffffffffffffffffffffff1673ffffffffffffffffffffffffffffffffffffffff163373ffffffffffffffffffffffffffffffffffffffff1614612c07576040517f08c379a0000000000000000000000000000000000000000000000000000000008152600401612bfe90613755565b60405180910390fd5b6001600660006101000a81548160ff0219169083151502179055507f490e422bf186e7b9c5bf929b7a168121e85d87907bfa65d128fcb133b579b79c600142604051612c549291906141d9565b60405180910390a1565b600b5481565b60008060009050612c756001612cfd565b8161ffff161015612ccc5760001515601160008361ffff1661ffff16815260200190815260200160002060020160009054906101000a900460ff1615151415612cc15780915050612cce565b61fa00915050612cce565b505b90565b6000808284612ce09190614202565b905083811015612cf357612cf2614258565b5b8091505092915050565b600081600001549050919050565b6001816000016000828254019250508190555050565b828054612d2d906140db565b90600052602060002090601f016020900481019282612d4f5760008555612d96565b82601f10612d6857805160ff1916838001178555612d96565b82800160010185558215612d96579182015b82811115612d95578251825591602001919060010190612d7a565b5b509050612da39190612dcd565b5090565b6040518060600160405280600060ff168152602001606081526020016000151581525090565b5b80821115612de6576000816000905550600101612dce565b5090565b6000604051905090565b600080fd5b600080fd5b6000819050919050565b612e1181612dfe565b8114612e1c57600080fd5b50565b600081359050612e2e81612e08565b92915050565b600060208284031215612e4a57612e49612df4565b5b6000612e5884828501612e1f565b91505092915050565b612e6a81612dfe565b82525050565b6000602082019050612e856000830184612e61565b92915050565b600061ffff82169050919050565b612ea281612e8b565b82525050565b6000602082019050612ebd6000830184612e99565b92915050565b600073ffffffffffffffffffffffffffffffffffffffff82169050919050565b6000612eee82612ec3565b9050919050565b612efe81612ee3565b8114612f0957600080fd5b50565b600081359050612f1b81612ef5565b92915050565b600060ff82169050919050565b612f3781612f21565b8114612f4257600080fd5b50565b600081359050612f5481612f2e565b92915050565b6000819050919050565b612f6d81612f5a565b8114612f7857600080fd5b50565b600081359050612f8a81612f64565b92915050565b600080fd5b600080fd5b6000601f19601f8301169050919050565b7f4e487b7100000000000000000000000000000000000000000000000000000000600052604160045260246000fd5b612fe382612f9a565b810181811067ffffffffffffffff8211171561300257613001612fab565b5b80604052505050565b6000613015612dea565b90506130218282612fda565b919050565b600067ffffffffffffffff82111561304157613040612fab565b5b61304a82612f9a565b9050602081019050919050565b82818337600083830152505050565b600061307961307484613026565b61300b565b90508281526020810184848401111561309557613094612f95565b5b6130a0848285613057565b509392505050565b600082601f8301126130bd576130bc612f90565b5b81356130cd848260208601613066565b91505092915050565b60008060008060008060c087890312156130f3576130f2612df4565b5b600061310189828a01612f0c565b965050602061311289828a01612f45565b955050604061312389828a01612f7b565b945050606061313489828a01612f7b565b935050608061314589828a01612e1f565b92505060a087013567ffffffffffffffff81111561316657613165612df9565b5b61317289828a016130a8565b9150509295509295509295565b60008115159050919050565b6131948161317f565b82525050565b60006020820190506131af600083018461318b565b92915050565b600080600080608085870312156131cf576131ce612df4565b5b60006131dd87828801612f0c565b94505060206131ee87828801612f45565b93505060406131ff87828801612f7b565b925050606061321087828801612f7b565b91505092959194509250565b60008060006060848603121561323557613234612df4565b5b600061324386828701612f45565b935050602061325486828701612f7b565b925050604061326586828701612f7b565b9150509250925092565b61327881612ee3565b82525050565b6000602082019050613293600083018461326f565b92915050565b600080fd5b600080fd5b6132ac8161317f565b81146132b757600080fd5b50565b6000813590506132c9816132a3565b92915050565b6000606082840312156132e5576132e4613299565b5b6132ef606061300b565b905060006132ff84828501612f45565b600083015250602082013567ffffffffffffffff8111156133235761332261329e565b5b61332f848285016130a8565b6020830152506040613343848285016132ba565b60408301525092915050565b60006020828403121561336557613364612df4565b5b600082013567ffffffffffffffff81111561338357613382612df9565b5b61338f848285016132cf565b91505092915050565b6000602082840312156133ae576133ad612df4565b5b60006133bc84828501612f0c565b91505092915050565b600081519050919050565b600082825260208201905092915050565b6000819050602082019050919050565b6133fa81612f21565b82525050565b600081519050919050565b600082825260208201905092915050565b60005b8381101561343a57808201518184015260208101905061341f565b83811115613449576000848401525b50505050565b600061345a82613400565b613464818561340b565b935061347481856020860161341c565b61347d81612f9a565b840191505092915050565b6134918161317f565b82525050565b60006060830160008301516134af60008601826133f1565b50602083015184820360208601526134c7828261344f565b91505060408301516134dc6040860182613488565b508091505092915050565b60006134f38383613497565b905092915050565b6000602082019050919050565b6000613513826133c5565b61351d81856133d0565b93508360208202850161352f856133e1565b8060005b8581101561356b578484038952815161354c85826134e7565b9450613557836134fb565b925060208a01995050600181019050613533565b50829750879550505050505092915050565b600060208201905081810360008301526135978184613508565b905092915050565b600067ffffffffffffffff8211156135ba576135b9612fab565b5b602082029050602081019050919050565b600080fd5b60006135e36135de8461359f565b61300b565b90508083825260208201905060208402830185811115613606576136056135cb565b5b835b8181101561364d57803567ffffffffffffffff81111561362b5761362a612f90565b5b80860161363889826132cf565b85526020850194505050602081019050613608565b5050509392505050565b600082601f83011261366c5761366b612f90565b5b813561367c8482602086016135d0565b91505092915050565b60006020828403121561369b5761369a612df4565b5b600082013567ffffffffffffffff8111156136b9576136b8612df9565b5b6136c584828501613657565b91505092915050565b6136d781612f21565b82525050565b60006020820190506136f260008301846136ce565b92915050565b600082825260208201905092915050565b7f43616c6c6572206973206e6f74206f776e657200000000000000000000000000600082015250565b600061373f6013836136f8565b915061374a82613709565b602082019050919050565b6000602082019050818103600083015261376e81613732565b9050919050565b7f53746172742074696d6520696e20706173740000000000000000000000000000600082015250565b60006137ab6012836136f8565b91506137b682613775565b602082019050919050565b600060208201905081810360008301526137da8161379e565b9050919050565b6000819050919050565b6000819050919050565b600061381061380b613806846137e1565b6137eb565b612f21565b9050919050565b613820816137f5565b82525050565b600060808201905061383b600083018761318b565b6138486020830186612e61565b6138556040830185612e61565b6138626060830184613817565b95945050505050565b6000819050919050565b600061389061388b6138868461386b565b6137eb565b612f21565b9050919050565b6138a081613875565b82525050565b60006080820190506138bb600083018761318b565b6138c86020830186612e61565b6138d56040830185612e61565b6138e26060830184613897565b95945050505050565b7f456e642074696d65206973206c6573732073746172742074696d650000000000600082015250565b6000613921601b836136f8565b915061392c826138eb565b602082019050919050565b6000602082019050818103600083015261395081613914565b9050919050565b7f5072696365206c657373207468616e2030000000000000000000000000000000600082015250565b600061398d6011836136f8565b915061399882613957565b602082019050919050565b600060208201905081810360008301526139bc81613980565b9050919050565b60006060820190506139d86000830186612e61565b6139e56020830185612e61565b6139f26040830184613817565b949350505050565b60008160601b9050919050565b6000613a12826139fa565b9050919050565b6000613a2482613a07565b9050919050565b613a3c613a3782612ee3565b613a19565b82525050565b600081905092915050565b6000613a5882613400565b613a628185613a42565b9350613a7281856020860161341c565b80840191505092915050565b6000819050919050565b613a99613a9482612dfe565b613a7e565b82525050565b6000613aab8287613a2b565b601482019150613abb8286613a4d565b9150613ac78285613a88565b602082019150613ad78284613a2b565b60148201915081905095945050505050565b7f19457468657265756d205369676e6564204d6573736167653a0a333200000000600082015250565b6000613b1f601c83613a42565b9150613b2a82613ae9565b601c82019050919050565b6000819050919050565b613b50613b4b82612f5a565b613b35565b82525050565b6000613b6182613b12565b9150613b6d8284613b3f565b60208201915081905092915050565b613b8581612f5a565b82525050565b6000608082019050613ba06000830187613b7c565b613bad60208301866136ce565b613bba6040830185613b7c565b613bc76060830184613b7c565b95945050505050565b6000613bdc8285613a2b565b601482019150613bec8284613a2b565b6014820191508190509392505050565b7f4e6f742076616c69640000000000000000000000000000000000000000000000600082015250565b6000613c326009836136f8565b9150613c3d82613bfc565b602082019050919050565b60006020820190508181036000830152613c6181613c25565b9050919050565b7f526f756e64206f722050726573616c65206973206f7665720000000000000000600082015250565b6000613c9e6018836136f8565b9150613ca982613c68565b602082019050919050565b60006020820190508181036000830152613ccd81613c91565b9050919050565b7f526f756e64206f722050726573616c65206973206f766572206f72206e6f742060008201527f7374617274656400000000000000000000000000000000000000000000000000602082015250565b6000613d306027836136f8565b9150613d3b82613cd4565b604082019050919050565b60006020820190508181036000830152613d5f81613d23565b9050919050565b7f416c6c20746f6b656e7320736f6c640000000000000000000000000000000000600082015250565b6000613d9c600f836136f8565b9150613da782613d66565b602082019050919050565b60006020820190508181036000830152613dcb81613d8f565b9050919050565b7f56616c756520746f6f206c6f7700000000000000000000000000000000000000600082015250565b6000613e08600d836136f8565b9150613e1382613dd2565b602082019050919050565b60006020820190508181036000830152613e3781613dfb565b9050919050565b7f4e487b7100000000000000000000000000000000000000000000000000000000600052601260045260246000fd5b7f4e487b7100000000000000000000000000000000000000000000000000000000600052601160045260246000fd5b6000613ea782612dfe565b9150613eb283612dfe565b925082613ec257613ec1613e3e565b5b828204905092915050565b600081905092915050565b50565b6000613ee8600083613ecd565b9150613ef382613ed8565b600082019050919050565b6000613f0982613edb565b9150819050919050565b7f4572726f7220776974682073656e64696e670000000000000000000000000000600082015250565b6000613f496012836136f8565b9150613f5482613f13565b602082019050919050565b60006020820190508181036000830152613f7881613f3c565b9050919050565b6000613f8a82612f21565b915060ff821415613f9e57613f9d613e6d565b5b600182019050919050565b6000613fc4613fbf613fba84612f21565b6137eb565b612dfe565b9050919050565b613fd481613fa9565b82525050565b6000604082019050613fef600083018561326f565b613ffc6020830184613fcb565b9392505050565b6000819050919050565b600061402861402361401e84614003565b6137eb565b612f21565b9050919050565b6140388161400d565b82525050565b6000604082019050614053600083018561402f565b6140606020830184612e61565b9392505050565b600060808201905061407c600083018761318b565b6140896020830186612e61565b6140966040830185612e61565b6140a3606083018461402f565b95945050505050565b7f4e487b7100000000000000000000000000000000000000000000000000000000600052602260045260246000fd5b600060028204905060018216806140f357607f821691505b60208210811415614107576141066140ac565b5b50919050565b7f4e487b7100000000000000000000000000000000000000000000000000000000600052603260045260246000fd5b600061414782612e8b565b915061ffff82141561415c5761415b613e6d565b5b600182019050919050565b600061417282612dfe565b91507fffffffffffffffffffffffffffffffffffffffffffffffffffffffffffffffff8214156141a5576141a4613e6d565b5b600182019050919050565b60006040820190506141c56000830185613897565b6141d26020830184612e61565b9392505050565b60006040820190506141ee6000830185613817565b6141fb6020830184612e61565b9392505050565b600061420d82612dfe565b915061421883612dfe565b9250827fffffffffffffffffffffffffffffffffffffffffffffffffffffffffffffffff0382111561424d5761424c613e6d565b5b828201905092915050565b7f4e487b7100000000000000000000000000000000000000000000000000000000600052600160045260246000fdfea2646970667358221220f01929cfb41e1f0244aae698da48b2c3635b67996da89b86306cad43afc2fec664736f6c634300080a0033",
  "linkReferences": {},
  "deployedLinkReferences": {}
}