{
  "_format": "hh-sol-artifact-1",
  "contractName": "PresaleDBT",
  "sourceName": "contracts/Presale/PresaleDBT.sol",
  "abi": [
    {
      "inputs": [
        {
          "internalType": "address",
          "name": "token_",
          "type": "address"
        },
        {
          "internalType": "uint256",
          "name": "startTime_",
          "type": "uint256"
        },
        {
          "internalType": "uint256",
          "name": "endTime_",
          "type": "uint256"
        },
        {
          "internalType": "address",
          "name": "wallet_",
          "type": "address"
        },
        {
          "internalType": "uint256",
          "name": "price_",
          "type": "uint256"
        },
        {
          "internalType": "uint256",
          "name": "tokenAmount_",
          "type": "uint256"
        }
      ],
      "stateMutability": "nonpayable",
      "type": "constructor"
    },
    {
      "anonymous": false,
      "inputs": [
        {
          "indexed": false,
          "internalType": "uint256",
          "name": "_lastPrice",
          "type": "uint256"
        },
        {
          "indexed": false,
          "internalType": "uint256",
          "name": "_newPrice",
          "type": "uint256"
        }
      ],
      "name": "ChangePrice",
      "type": "event"
    },
    {
      "anonymous": false,
      "inputs": [
        {
          "indexed": false,
          "internalType": "bool",
          "name": "isStartTime",
          "type": "bool"
        },
        {
          "indexed": false,
          "internalType": "uint256",
          "name": "_lastTime",
          "type": "uint256"
        },
        {
          "indexed": false,
          "internalType": "uint256",
          "name": "_newTime",
          "type": "uint256"
        }
      ],
      "name": "ChangeRoundTime",
      "type": "event"
    },
    {
      "anonymous": false,
      "inputs": [
        {
          "indexed": true,
          "internalType": "address",
          "name": "oldOwner",
          "type": "address"
        },
        {
          "indexed": true,
          "internalType": "address",
          "name": "newOwner",
          "type": "address"
        }
      ],
      "name": "OwnerSet",
      "type": "event"
    },
    {
      "anonymous": false,
      "inputs": [
        {
          "indexed": false,
          "internalType": "uint256",
          "name": "_time",
          "type": "uint256"
        }
      ],
      "name": "PresaleEnd",
      "type": "event"
    },
    {
      "anonymous": false,
      "inputs": [
        {
          "indexed": false,
          "internalType": "address",
          "name": "_sender",
          "type": "address"
        },
        {
          "indexed": false,
          "internalType": "uint256",
          "name": "_amount",
          "type": "uint256"
        }
      ],
      "name": "TransferPresaleToken",
      "type": "event"
    },
    {
      "anonymous": false,
      "inputs": [
        {
          "indexed": false,
          "internalType": "uint256",
          "name": "_amount",
          "type": "uint256"
        }
      ],
      "name": "WithdrawBNB",
      "type": "event"
    },
    {
      "stateMutability": "payable",
      "type": "fallback"
    },
    {
      "inputs": [],
      "name": "DBT",
      "outputs": [
        {
          "internalType": "contract IBEP20",
          "name": "",
          "type": "address"
        }
      ],
      "stateMutability": "view",
      "type": "function"
    },
    {
      "inputs": [
        {
          "internalType": "uint8",
          "name": "_v",
          "type": "uint8"
        },
        {
          "internalType": "bytes32",
          "name": "_r",
          "type": "bytes32"
        },
        {
          "internalType": "bytes32",
          "name": "_s",
          "type": "bytes32"
        }
      ],
      "name": "buyDBTRound1",
      "outputs": [],
      "stateMutability": "payable",
      "type": "function"
    },
    {
      "inputs": [
        {
          "internalType": "address",
          "name": "newOwner",
          "type": "address"
        }
      ],
      "name": "changeOwner",
      "outputs": [],
      "stateMutability": "nonpayable",
      "type": "function"
    },
    {
      "inputs": [
        {
          "internalType": "uint256",
          "name": "_price",
          "type": "uint256"
        }
      ],
      "name": "changePriceRound1",
      "outputs": [],
      "stateMutability": "nonpayable",
      "type": "function"
    },
    {
      "inputs": [
        {
          "internalType": "uint256",
          "name": "_time",
          "type": "uint256"
        }
      ],
      "name": "changeRound1EndTime",
      "outputs": [],
      "stateMutability": "nonpayable",
      "type": "function"
    },
    {
      "inputs": [
        {
          "internalType": "uint256",
          "name": "_time",
          "type": "uint256"
        }
      ],
      "name": "changeRound1StartTime",
      "outputs": [],
      "stateMutability": "nonpayable",
      "type": "function"
    },
    {
      "inputs": [
        {
          "internalType": "address",
          "name": "_new",
          "type": "address"
        }
      ],
      "name": "changeTokenAddress",
      "outputs": [],
      "stateMutability": "nonpayable",
      "type": "function"
    },
    {
      "inputs": [],
      "name": "closePresale",
      "outputs": [],
      "stateMutability": "nonpayable",
      "type": "function"
    },
    {
      "inputs": [],
      "name": "endTimeRound1",
      "outputs": [
        {
          "internalType": "uint256",
          "name": "",
          "type": "uint256"
        }
      ],
      "stateMutability": "view",
      "type": "function"
    },
    {
      "inputs": [],
      "name": "getOwner",
      "outputs": [
        {
          "internalType": "address",
          "name": "",
          "type": "address"
        }
      ],
      "stateMutability": "view",
      "type": "function"
    },
    {
      "inputs": [],
      "name": "getRound1EndTime",
      "outputs": [
        {
          "internalType": "uint256",
          "name": "",
          "type": "uint256"
        }
      ],
      "stateMutability": "view",
      "type": "function"
    },
    {
      "inputs": [],
      "name": "getRound1Price",
      "outputs": [
        {
          "internalType": "uint256",
          "name": "",
          "type": "uint256"
        }
      ],
      "stateMutability": "view",
      "type": "function"
    },
    {
      "inputs": [],
      "name": "getRound1StartTime",
      "outputs": [
        {
          "internalType": "uint256",
          "name": "",
          "type": "uint256"
        }
      ],
      "stateMutability": "view",
      "type": "function"
    },
    {
      "inputs": [],
      "name": "getSold",
      "outputs": [
        {
          "internalType": "uint256",
          "name": "",
          "type": "uint256"
        }
      ],
      "stateMutability": "view",
      "type": "function"
    },
    {
      "inputs": [],
      "name": "getWallet",
      "outputs": [
        {
          "internalType": "address",
          "name": "",
          "type": "address"
        }
      ],
      "stateMutability": "view",
      "type": "function"
    },
    {
      "inputs": [],
      "name": "hasClosed",
      "outputs": [
        {
          "internalType": "bool",
          "name": "",
          "type": "bool"
        }
      ],
      "stateMutability": "view",
      "type": "function"
    },
    {
      "inputs": [
        {
          "internalType": "address",
          "name": "_add",
          "type": "address"
        },
        {
          "internalType": "uint8",
          "name": "_v",
          "type": "uint8"
        },
        {
          "internalType": "bytes32",
          "name": "_r",
          "type": "bytes32"
        },
        {
          "internalType": "bytes32",
          "name": "_s",
          "type": "bytes32"
        }
      ],
      "name": "isValidAccessMessage",
      "outputs": [
        {
          "internalType": "bool",
          "name": "",
          "type": "bool"
        }
      ],
      "stateMutability": "view",
      "type": "function"
    },
    {
      "inputs": [
        {
          "internalType": "address",
          "name": "_add",
          "type": "address"
        },
        {
          "internalType": "uint8",
          "name": "_v",
          "type": "uint8"
        },
        {
          "internalType": "bytes32",
          "name": "_r",
          "type": "bytes32"
        },
        {
          "internalType": "bytes32",
          "name": "_s",
          "type": "bytes32"
        },
        {
          "internalType": "uint256",
          "name": "orderID",
          "type": "uint256"
        },
        {
          "internalType": "string",
          "name": "_tokenURI",
          "type": "string"
        }
      ],
      "name": "isValidMintMessage",
      "outputs": [
        {
          "internalType": "bool",
          "name": "",
          "type": "bool"
        }
      ],
      "stateMutability": "view",
      "type": "function"
    },
    {
      "inputs": [
        {
          "internalType": "uint256",
          "name": "_time",
          "type": "uint256"
        }
      ],
      "name": "mockRound1EndTime",
      "outputs": [],
      "stateMutability": "nonpayable",
      "type": "function"
    },
    {
      "inputs": [
        {
          "internalType": "uint256",
          "name": "_time",
          "type": "uint256"
        }
      ],
      "name": "mockRound1StartTime",
      "outputs": [],
      "stateMutability": "nonpayable",
      "type": "function"
    },
    {
      "inputs": [],
      "name": "priceRound1",
      "outputs": [
        {
          "internalType": "uint256",
          "name": "",
          "type": "uint256"
        }
      ],
      "stateMutability": "view",
      "type": "function"
    },
    {
      "inputs": [],
      "name": "round1End",
      "outputs": [
        {
          "internalType": "bool",
          "name": "",
          "type": "bool"
        }
      ],
      "stateMutability": "view",
      "type": "function"
    },
    {
      "inputs": [],
      "name": "startTimeRound1",
      "outputs": [
        {
          "internalType": "uint256",
          "name": "",
          "type": "uint256"
        }
      ],
      "stateMutability": "view",
      "type": "function"
    },
    {
      "inputs": [],
      "name": "tokenAmount",
      "outputs": [
        {
          "internalType": "uint256",
          "name": "",
          "type": "uint256"
        }
      ],
      "stateMutability": "view",
      "type": "function"
    },
    {
      "inputs": [],
      "name": "tokenSold",
      "outputs": [
        {
          "internalType": "uint256",
          "name": "",
          "type": "uint256"
        }
      ],
      "stateMutability": "view",
      "type": "function"
    },
    {
      "inputs": [],
      "name": "withdrawDBT",
      "outputs": [],
      "stateMutability": "nonpayable",
      "type": "function"
    },
    {
      "stateMutability": "payable",
      "type": "receive"
    }
  ],
  "bytecode": "0x60806040523480156200001157600080fd5b5060405162002d5c38038062002d5c83398181016040528101906200003791906200043f565b336000806101000a81548173ffffffffffffffffffffffffffffffffffffffff021916908373ffffffffffffffffffffffffffffffffffffffff16021790555060008054906101000a900473ffffffffffffffffffffffffffffffffffffffff1673ffffffffffffffffffffffffffffffffffffffff16600073ffffffffffffffffffffffffffffffffffffffff167f342827c97908e5e2f71151c08502a66d44b6f758e3ac2f1de95f02eb95f0a73560405160405180910390a3600073ffffffffffffffffffffffffffffffffffffffff168673ffffffffffffffffffffffffffffffffffffffff16141562000165576040517f08c379a00000000000000000000000000000000000000000000000000000000081526004016200015c906200053c565b60405180910390fd5b42851015620001ab576040517f08c379a0000000000000000000000000000000000000000000000000000000008152600401620001a290620005ae565b60405180910390fd5b84841015620001f1576040517f08c379a0000000000000000000000000000000000000000000000000000000008152600401620001e89062000620565b60405180910390fd5b600073ffffffffffffffffffffffffffffffffffffffff168373ffffffffffffffffffffffffffffffffffffffff16141562000264576040517f08c379a00000000000000000000000000000000000000000000000000000000081526004016200025b9062000692565b60405180910390fd5b60008211620002aa576040517f08c379a0000000000000000000000000000000000000000000000000000000008152600401620002a19062000704565b60405180910390fd5b60008111620002f0576040517f08c379a0000000000000000000000000000000000000000000000000000000008152600401620002e79062000776565b60405180910390fd5b85600160006101000a81548173ffffffffffffffffffffffffffffffffffffffff021916908373ffffffffffffffffffffffffffffffffffffffff160217905550846002819055508360038190555082600560016101000a81548173ffffffffffffffffffffffffffffffffffffffff021916908373ffffffffffffffffffffffffffffffffffffffff160217905550816004819055508060078190555050505050505062000798565b600080fd5b600073ffffffffffffffffffffffffffffffffffffffff82169050919050565b6000620003cc826200039f565b9050919050565b620003de81620003bf565b8114620003ea57600080fd5b50565b600081519050620003fe81620003d3565b92915050565b6000819050919050565b620004198162000404565b81146200042557600080fd5b50565b60008151905062000439816200040e565b92915050565b60008060008060008060c087890312156200045f576200045e6200039a565b5b60006200046f89828a01620003ed565b96505060206200048289828a0162000428565b95505060406200049589828a0162000428565b9450506060620004a889828a01620003ed565b9350506080620004bb89828a0162000428565b92505060a0620004ce89828a0162000428565b9150509295509295509295565b600082825260208201905092915050565b7f546f6b656e206973206e6f742061646472657373283029000000000000000000600082015250565b600062000524601783620004db565b91506200053182620004ec565b602082019050919050565b60006020820190508181036000830152620005578162000515565b9050919050565b7f53746172742074696d6520696e20706173740000000000000000000000000000600082015250565b600062000596601283620004db565b9150620005a3826200055e565b602082019050919050565b60006020820190508181036000830152620005c98162000587565b9050919050565b7f456e642074696d65206973206c6573732073746172742074696d650000000000600082015250565b600062000608601b83620004db565b91506200061582620005d0565b602082019050919050565b600060208201905081810360008301526200063b81620005f9565b9050919050565b7f57616c6c6574206973206e6f7420616464726573732830290000000000000000600082015250565b60006200067a601883620004db565b9150620006878262000642565b602082019050919050565b60006020820190508181036000830152620006ad816200066b565b9050919050565b7f50726963652063616e74206265206c657373207468616e203000000000000000600082015250565b6000620006ec601983620004db565b9150620006f982620006b4565b602082019050919050565b600060208201905081810360008301526200071f81620006dd565b9050919050565b7f416d70756e742063616e74206265206c657373207468616e2030000000000000600082015250565b60006200075e601a83620004db565b91506200076b8262000726565b602082019050919050565b6000602082019050818103600083015262000791816200074f565b9050919050565b6125b480620007a86000396000f3fe6080604052600436106101855760003560e01c806363cea450116100d1578063c9cda91f1161008a578063d30038ae11610064578063d30038ae14610530578063d8e3cd781461055b578063d912810814610584578063eec7faa1146105a05761018c565b8063c9cda91f146104b5578063ce8ee11f146104de578063d22ecc4a146105075761018c565b806363cea450146103c95780637a0846d8146103e0578063893d20e81461040b5780638f282b8714610436578063a6f9dae114610461578063b1fca9561461048a5761018c565b80632457e5901161013e5780633262411411610118578063326241141461030b57806340bc9308146103485780634ac0ab1c14610373578063519ee19e1461039e5761018c565b80632457e590146102a0578063260c16dc146102cb5780632a92557c146102e25761018c565b806302d27d571461018e57806313299604146101b7578063135ed7bd146101e25780631515bc2b1461020d5780631cd14eed146102385780631dfc1618146102755761018c565b3661018c57005b005b34801561019a57600080fd5b506101b560048036038101906101b0919061173b565b6105cb565b005b3480156101c357600080fd5b506101cc6106ea565b6040516101d991906117a9565b60405180910390f35b3480156101ee57600080fd5b506101f7610714565b60405161020491906117d3565b60405180910390f35b34801561021957600080fd5b5061022261071a565b60405161022f9190611809565b60405180910390f35b34801561024457600080fd5b5061025f600480360381019061025a9190611a05565b610726565b60405161026c9190611809565b60405180910390f35b34801561028157600080fd5b5061028a610828565b6040516102979190611b0d565b60405180910390f35b3480156102ac57600080fd5b506102b561084e565b6040516102c291906117d3565b60405180910390f35b3480156102d757600080fd5b506102e0610858565b005b3480156102ee57600080fd5b506103096004803603810190610304919061173b565b610a4a565b005b34801561031757600080fd5b50610332600480360381019061032d9190611b28565b610ae2565b60405161033f9190611809565b60405180910390f35b34801561035457600080fd5b5061035d610bde565b60405161036a91906117d3565b60405180910390f35b34801561037f57600080fd5b50610388610be4565b6040516103959190611809565b60405180910390f35b3480156103aa57600080fd5b506103b3610bf7565b6040516103c091906117d3565b60405180910390f35b3480156103d557600080fd5b506103de610bfd565b005b3480156103ec57600080fd5b506103f5610cdf565b60405161040291906117d3565b60405180910390f35b34801561041757600080fd5b50610420610ce9565b60405161042d91906117a9565b60405180910390f35b34801561044257600080fd5b5061044b610d12565b60405161045891906117d3565b60405180910390f35b34801561046d57600080fd5b5061048860048036038101906104839190611b8f565b610dab565b005b34801561049657600080fd5b5061049f610ef6565b6040516104ac91906117d3565b60405180910390f35b3480156104c157600080fd5b506104dc60048036038101906104d79190611b8f565b610efc565b005b3480156104ea57600080fd5b506105056004803603810190610500919061173b565b610fce565b005b34801561051357600080fd5b5061052e6004803603810190610529919061173b565b6110ea565b005b34801561053c57600080fd5b5061054561120b565b60405161055291906117d3565b60405180910390f35b34801561056757600080fd5b50610582600480360381019061057d919061173b565b611215565b005b61059e60048036038101906105999190611bbc565b6112ad565b005b3480156105ac57600080fd5b506105b56116bf565b6040516105c291906117d3565b60405180910390f35b60008054906101000a900473ffffffffffffffffffffffffffffffffffffffff1673ffffffffffffffffffffffffffffffffffffffff163373ffffffffffffffffffffffffffffffffffffffff1614610659576040517f08c379a000000000000000000000000000000000000000000000000000000000815260040161065090611c6c565b60405180910390fd5b4281101561069c576040517f08c379a000000000000000000000000000000000000000000000000000000000815260040161069390611cd8565b60405180910390fd5b60006002549050816002819055507f48a1b3db3abd190fe2aac2b428c0c4ac8ddc8a72640ce2e677f93fbb0e5b625c600182846040516106de93929190611cf8565b60405180910390a15050565b6000600560019054906101000a900473ffffffffffffffffffffffffffffffffffffffff16905090565b60045481565b60006003544211905090565b6000803083858a6040516020016107409493929190611e12565b60405160208183030381529060405280519060200120905060018160405160200161076b9190611ec9565b60405160208183030381529060405280519060200120888888604051600081526020016040526040516107a19493929190611f0d565b6020604051602081039080840390855afa1580156107c3573d6000803e3d6000fd5b5050506020604051035173ffffffffffffffffffffffffffffffffffffffff1660008054906101000a900473ffffffffffffffffffffffffffffffffffffffff1673ffffffffffffffffffffffffffffffffffffffff16149150509695505050505050565b600160009054906101000a900473ffffffffffffffffffffffffffffffffffffffff1681565b6000600254905090565b60008054906101000a900473ffffffffffffffffffffffffffffffffffffffff1673ffffffffffffffffffffffffffffffffffffffff163373ffffffffffffffffffffffffffffffffffffffff16146108e6576040517f08c379a00000000000000000000000000000000000000000000000000000000081526004016108dd90611c6c565b60405180910390fd5b6000600160009054906101000a900473ffffffffffffffffffffffffffffffffffffffff1673ffffffffffffffffffffffffffffffffffffffff166370a08231306040518263ffffffff1660e01b815260040161094391906117a9565b602060405180830381865afa158015610960573d6000803e3d6000fd5b505050506040513d601f19601f820116820180604052508101906109849190611f67565b9050600160009054906101000a900473ffffffffffffffffffffffffffffffffffffffff1673ffffffffffffffffffffffffffffffffffffffff1663a9059cbb60008054906101000a900473ffffffffffffffffffffffffffffffffffffffff16836040518363ffffffff1660e01b8152600401610a03929190611f94565b6020604051808303816000875af1158015610a22573d6000803e3d6000fd5b505050506040513d601f19601f82011682018060405250810190610a469190611fe9565b5050565b60008054906101000a900473ffffffffffffffffffffffffffffffffffffffff1673ffffffffffffffffffffffffffffffffffffffff163373ffffffffffffffffffffffffffffffffffffffff1614610ad8576040517f08c379a0000000000000000000000000000000000000000000000000000000008152600401610acf90611c6c565b60405180910390fd5b8060038190555050565b6000803086604051602001610af8929190612016565b604051602081830303815290604052805190602001209050600181604051602001610b239190611ec9565b6040516020818303038152906040528051906020012086868660405160008152602001604052604051610b599493929190611f0d565b6020604051602081039080840390855afa158015610b7b573d6000803e3d6000fd5b5050506020604051035173ffffffffffffffffffffffffffffffffffffffff1660008054906101000a900473ffffffffffffffffffffffffffffffffffffffff1673ffffffffffffffffffffffffffffffffffffffff1614915050949350505050565b60025481565b600560009054906101000a900460ff1681565b60065481565b60008054906101000a900473ffffffffffffffffffffffffffffffffffffffff1673ffffffffffffffffffffffffffffffffffffffff163373ffffffffffffffffffffffffffffffffffffffff1614610c8b576040517f08c379a0000000000000000000000000000000000000000000000000000000008152600401610c8290611c6c565b60405180910390fd5b6001600560006101000a81548160ff0219169083151502179055507ff7e237784960cd4b5e94918b28849709c805d7c949bfd509ab48da9d791f97ca42604051610cd591906117d3565b60405180910390a1565b6000600354905090565b60008060009054906101000a900473ffffffffffffffffffffffffffffffffffffffff16905090565b60008060009054906101000a900473ffffffffffffffffffffffffffffffffffffffff1673ffffffffffffffffffffffffffffffffffffffff163373ffffffffffffffffffffffffffffffffffffffff1614610da3576040517f08c379a0000000000000000000000000000000000000000000000000000000008152600401610d9a90611c6c565b60405180910390fd5b600654905090565b60008054906101000a900473ffffffffffffffffffffffffffffffffffffffff1673ffffffffffffffffffffffffffffffffffffffff163373ffffffffffffffffffffffffffffffffffffffff1614610e39576040517f08c379a0000000000000000000000000000000000000000000000000000000008152600401610e3090611c6c565b60405180910390fd5b8073ffffffffffffffffffffffffffffffffffffffff1660008054906101000a900473ffffffffffffffffffffffffffffffffffffffff1673ffffffffffffffffffffffffffffffffffffffff167f342827c97908e5e2f71151c08502a66d44b6f758e3ac2f1de95f02eb95f0a73560405160405180910390a3806000806101000a81548173ffffffffffffffffffffffffffffffffffffffff021916908373ffffffffffffffffffffffffffffffffffffffff16021790555050565b60035481565b60008054906101000a900473ffffffffffffffffffffffffffffffffffffffff1673ffffffffffffffffffffffffffffffffffffffff163373ffffffffffffffffffffffffffffffffffffffff1614610f8a576040517f08c379a0000000000000000000000000000000000000000000000000000000008152600401610f8190611c6c565b60405180910390fd5b80600160006101000a81548173ffffffffffffffffffffffffffffffffffffffff021916908373ffffffffffffffffffffffffffffffffffffffff16021790555050565b60008054906101000a900473ffffffffffffffffffffffffffffffffffffffff1673ffffffffffffffffffffffffffffffffffffffff163373ffffffffffffffffffffffffffffffffffffffff161461105c576040517f08c379a000000000000000000000000000000000000000000000000000000000815260040161105390611c6c565b60405180910390fd5b6000811161109f576040517f08c379a00000000000000000000000000000000000000000000000000000000081526004016110969061208e565b60405180910390fd5b60006004549050816004819055507f7a23754ec05fb9abcc146d222035598f3cf9aac8c35fe1c74b08f0b7717713a481836040516110de9291906120ae565b60405180910390a15050565b60008054906101000a900473ffffffffffffffffffffffffffffffffffffffff1673ffffffffffffffffffffffffffffffffffffffff163373ffffffffffffffffffffffffffffffffffffffff1614611178576040517f08c379a000000000000000000000000000000000000000000000000000000000815260040161116f90611c6c565b60405180910390fd5b6002548110156111bd576040517f08c379a00000000000000000000000000000000000000000000000000000000081526004016111b490612123565b60405180910390fd5b60006002549050816003819055507f48a1b3db3abd190fe2aac2b428c0c4ac8ddc8a72640ce2e677f93fbb0e5b625c600082846040516111ff93929190611cf8565b60405180910390a15050565b6000600454905090565b60008054906101000a900473ffffffffffffffffffffffffffffffffffffffff1673ffffffffffffffffffffffffffffffffffffffff163373ffffffffffffffffffffffffffffffffffffffff16146112a3576040517f08c379a000000000000000000000000000000000000000000000000000000000815260040161129a90611c6c565b60405180910390fd5b8060028190555050565b8282826112bc33848484610ae2565b6112fb576040517f08c379a00000000000000000000000000000000000000000000000000000000081526004016112f29061218f565b60405180910390fd5b60011515600560009054906101000a900460ff1615151415611352576040517f08c379a0000000000000000000000000000000000000000000000000000000008152600401611349906121fb565b60405180910390fd5b600254421015801561136657506003544211155b6113a5576040517f08c379a000000000000000000000000000000000000000000000000000000000815260040161139c90612267565b60405180910390fd5b6004543410156113b457600080fd5b6000670de0b6b3a7640000600454346113cd91906122e5565b6113d79190612316565b90506006546007546113e99190612370565b811061142a576040517f08c379a0000000000000000000000000000000000000000000000000000000008152600401611421906123f0565b60405180910390fd5b6000600560019054906101000a900473ffffffffffffffffffffffffffffffffffffffff1673ffffffffffffffffffffffffffffffffffffffff163460405161147290612441565b60006040518083038185875af1925050503d80600081146114af576040519150601f19603f3d011682016040523d82523d6000602084013e6114b4565b606091505b50509050806114f8576040517f08c379a00000000000000000000000000000000000000000000000000000000081526004016114ef906124a2565b60405180910390fd5b600160009054906101000a900473ffffffffffffffffffffffffffffffffffffffff1673ffffffffffffffffffffffffffffffffffffffff1663a9059cbb33846040518363ffffffff1660e01b8152600401611555929190611f94565b6020604051808303816000875af1158015611574573d6000803e3d6000fd5b505050506040513d601f19601f820116820180604052508101906115989190611fe9565b50600160009054906101000a900473ffffffffffffffffffffffffffffffffffffffff1673ffffffffffffffffffffffffffffffffffffffff1663851c0f248342336040518463ffffffff1660e01b81526004016115f8939291906124c2565b600060405180830381600087803b15801561161257600080fd5b505af1158015611626573d6000803e3d6000fd5b5050505061163f826006546116c590919063ffffffff16565b6006819055507f2e2c7c37facc49beee8cf3642a3d75804e6e3651d595261095101e38bba05d3a3460405161167491906117d3565b60405180910390a17f37d00317365c87f2e5b3cf5675ea7d3fb47ba4f5f9775c33483f95d3baa5467433836040516116ad929190611f94565b60405180910390a15050505050505050565b60075481565b60008082846116d491906124f9565b9050838110156116e7576116e661254f565b5b8091505092915050565b6000604051905090565b600080fd5b600080fd5b6000819050919050565b61171881611705565b811461172357600080fd5b50565b6000813590506117358161170f565b92915050565b600060208284031215611751576117506116fb565b5b600061175f84828501611726565b91505092915050565b600073ffffffffffffffffffffffffffffffffffffffff82169050919050565b600061179382611768565b9050919050565b6117a381611788565b82525050565b60006020820190506117be600083018461179a565b92915050565b6117cd81611705565b82525050565b60006020820190506117e860008301846117c4565b92915050565b60008115159050919050565b611803816117ee565b82525050565b600060208201905061181e60008301846117fa565b92915050565b61182d81611788565b811461183857600080fd5b50565b60008135905061184a81611824565b92915050565b600060ff82169050919050565b61186681611850565b811461187157600080fd5b50565b6000813590506118838161185d565b92915050565b6000819050919050565b61189c81611889565b81146118a757600080fd5b50565b6000813590506118b981611893565b92915050565b600080fd5b600080fd5b6000601f19601f8301169050919050565b7f4e487b7100000000000000000000000000000000000000000000000000000000600052604160045260246000fd5b611912826118c9565b810181811067ffffffffffffffff82111715611931576119306118da565b5b80604052505050565b60006119446116f1565b90506119508282611909565b919050565b600067ffffffffffffffff8211156119705761196f6118da565b5b611979826118c9565b9050602081019050919050565b82818337600083830152505050565b60006119a86119a384611955565b61193a565b9050828152602081018484840111156119c4576119c36118c4565b5b6119cf848285611986565b509392505050565b600082601f8301126119ec576119eb6118bf565b5b81356119fc848260208601611995565b91505092915050565b60008060008060008060c08789031215611a2257611a216116fb565b5b6000611a3089828a0161183b565b9650506020611a4189828a01611874565b9550506040611a5289828a016118aa565b9450506060611a6389828a016118aa565b9350506080611a7489828a01611726565b92505060a087013567ffffffffffffffff811115611a9557611a94611700565b5b611aa189828a016119d7565b9150509295509295509295565b6000819050919050565b6000611ad3611ace611ac984611768565b611aae565b611768565b9050919050565b6000611ae582611ab8565b9050919050565b6000611af782611ada565b9050919050565b611b0781611aec565b82525050565b6000602082019050611b226000830184611afe565b92915050565b60008060008060808587031215611b4257611b416116fb565b5b6000611b508782880161183b565b9450506020611b6187828801611874565b9350506040611b72878288016118aa565b9250506060611b83878288016118aa565b91505092959194509250565b600060208284031215611ba557611ba46116fb565b5b6000611bb38482850161183b565b91505092915050565b600080600060608486031215611bd557611bd46116fb565b5b6000611be386828701611874565b9350506020611bf4868287016118aa565b9250506040611c05868287016118aa565b9150509250925092565b600082825260208201905092915050565b7f43616c6c6572206973206e6f74206f776e657200000000000000000000000000600082015250565b6000611c56601383611c0f565b9150611c6182611c20565b602082019050919050565b60006020820190508181036000830152611c8581611c49565b9050919050565b7f53746172742074696d6520696e20706173740000000000000000000000000000600082015250565b6000611cc2601283611c0f565b9150611ccd82611c8c565b602082019050919050565b60006020820190508181036000830152611cf181611cb5565b9050919050565b6000606082019050611d0d60008301866117fa565b611d1a60208301856117c4565b611d2760408301846117c4565b949350505050565b60008160601b9050919050565b6000611d4782611d2f565b9050919050565b6000611d5982611d3c565b9050919050565b611d71611d6c82611788565b611d4e565b82525050565b600081519050919050565b600081905092915050565b60005b83811015611dab578082015181840152602081019050611d90565b83811115611dba576000848401525b50505050565b6000611dcb82611d77565b611dd58185611d82565b9350611de5818560208601611d8d565b80840191505092915050565b6000819050919050565b611e0c611e0782611705565b611df1565b82525050565b6000611e1e8287611d60565b601482019150611e2e8286611dc0565b9150611e3a8285611dfb565b602082019150611e4a8284611d60565b60148201915081905095945050505050565b7f19457468657265756d205369676e6564204d6573736167653a0a333200000000600082015250565b6000611e92601c83611d82565b9150611e9d82611e5c565b601c82019050919050565b6000819050919050565b611ec3611ebe82611889565b611ea8565b82525050565b6000611ed482611e85565b9150611ee08284611eb2565b60208201915081905092915050565b611ef881611889565b82525050565b611f0781611850565b82525050565b6000608082019050611f226000830187611eef565b611f2f6020830186611efe565b611f3c6040830185611eef565b611f496060830184611eef565b95945050505050565b600081519050611f618161170f565b92915050565b600060208284031215611f7d57611f7c6116fb565b5b6000611f8b84828501611f52565b91505092915050565b6000604082019050611fa9600083018561179a565b611fb660208301846117c4565b9392505050565b611fc6816117ee565b8114611fd157600080fd5b50565b600081519050611fe381611fbd565b92915050565b600060208284031215611fff57611ffe6116fb565b5b600061200d84828501611fd4565b91505092915050565b60006120228285611d60565b6014820191506120328284611d60565b6014820191508190509392505050565b7f5072696365206c657373207468616e2030000000000000000000000000000000600082015250565b6000612078601183611c0f565b915061208382612042565b602082019050919050565b600060208201905081810360008301526120a78161206b565b9050919050565b60006040820190506120c360008301856117c4565b6120d060208301846117c4565b9392505050565b7f456e642074696d65206973206c6573732073746172742074696d650000000000600082015250565b600061210d601b83611c0f565b9150612118826120d7565b602082019050919050565b6000602082019050818103600083015261213c81612100565b9050919050565b7f4e6f742076616c69640000000000000000000000000000000000000000000000600082015250565b6000612179600983611c0f565b915061218482612143565b602082019050919050565b600060208201905081810360008301526121a88161216c565b9050919050565b7f50726573616c65206973206f7665720000000000000000000000000000000000600082015250565b60006121e5600f83611c0f565b91506121f0826121af565b602082019050919050565b60006020820190508181036000830152612214816121d8565b9050919050565b7f50726573616c65206973206f766572206f72206e6f7420737461727465640000600082015250565b6000612251601e83611c0f565b915061225c8261221b565b602082019050919050565b6000602082019050818103600083015261228081612244565b9050919050565b7f4e487b7100000000000000000000000000000000000000000000000000000000600052601260045260246000fd5b7f4e487b7100000000000000000000000000000000000000000000000000000000600052601160045260246000fd5b60006122f082611705565b91506122fb83611705565b92508261230b5761230a612287565b5b828204905092915050565b600061232182611705565b915061232c83611705565b9250817fffffffffffffffffffffffffffffffffffffffffffffffffffffffffffffffff0483118215151615612365576123646122b6565b5b828202905092915050565b600061237b82611705565b915061238683611705565b925082821015612399576123986122b6565b5b828203905092915050565b7f4e6f7420656e6f7567682044425420696e20636f6e7472616374000000000000600082015250565b60006123da601a83611c0f565b91506123e5826123a4565b602082019050919050565b60006020820190508181036000830152612409816123cd565b9050919050565b600081905092915050565b50565b600061242b600083612410565b91506124368261241b565b600082019050919050565b600061244c8261241e565b9150819050919050565b7f4572726f7220776974682073656e64696e670000000000000000000000000000600082015250565b600061248c601283611c0f565b915061249782612456565b602082019050919050565b600060208201905081810360008301526124bb8161247f565b9050919050565b60006060820190506124d760008301866117c4565b6124e460208301856117c4565b6124f1604083018461179a565b949350505050565b600061250482611705565b915061250f83611705565b9250827fffffffffffffffffffffffffffffffffffffffffffffffffffffffffffffffff03821115612544576125436122b6565b5b828201905092915050565b7f4e487b7100000000000000000000000000000000000000000000000000000000600052600160045260246000fdfea26469706673582212208c277411353e27f691ee2b19b189fe182696ab8e073865a5d26e0fceb19e63cd64736f6c634300080a0033",
  "linkReferences": {},
  "deployedLinkReferences": {}
}