{
  "_format": "hh-sol-artifact-1",
  "contractName": "DigitalGolems",
  "sourceName": "contracts/DigitalGolems/DigitalGolems.sol",
  "abi": [
    {
      "inputs": [],
      "stateMutability": "nonpayable",
      "type": "constructor"
    },
    {
      "anonymous": false,
      "inputs": [
        {
          "indexed": true,
          "internalType": "address",
          "name": "owner",
          "type": "address"
        },
        {
          "indexed": true,
          "internalType": "address",
          "name": "approved",
          "type": "address"
        },
        {
          "indexed": true,
          "internalType": "uint256",
          "name": "tokenId",
          "type": "uint256"
        }
      ],
      "name": "Approval",
      "type": "event"
    },
    {
      "anonymous": false,
      "inputs": [
        {
          "indexed": true,
          "internalType": "address",
          "name": "owner",
          "type": "address"
        },
        {
          "indexed": true,
          "internalType": "address",
          "name": "operator",
          "type": "address"
        },
        {
          "indexed": false,
          "internalType": "bool",
          "name": "approved",
          "type": "bool"
        }
      ],
      "name": "ApprovalForAll",
      "type": "event"
    },
    {
      "anonymous": false,
      "inputs": [
        {
          "indexed": true,
          "internalType": "address",
          "name": "oldOwner",
          "type": "address"
        },
        {
          "indexed": true,
          "internalType": "address",
          "name": "newOwner",
          "type": "address"
        }
      ],
      "name": "OwnerSet",
      "type": "event"
    },
    {
      "anonymous": false,
      "inputs": [
        {
          "indexed": true,
          "internalType": "address",
          "name": "from",
          "type": "address"
        },
        {
          "indexed": true,
          "internalType": "address",
          "name": "to",
          "type": "address"
        },
        {
          "indexed": true,
          "internalType": "uint256",
          "name": "tokenId",
          "type": "uint256"
        }
      ],
      "name": "Transfer",
      "type": "event"
    },
    {
      "inputs": [
        {
          "internalType": "address",
          "name": "to",
          "type": "address"
        },
        {
          "internalType": "uint256",
          "name": "tokenId",
          "type": "uint256"
        }
      ],
      "name": "approve",
      "outputs": [],
      "stateMutability": "nonpayable",
      "type": "function"
    },
    {
      "inputs": [
        {
          "internalType": "address",
          "name": "player",
          "type": "address"
        },
        {
          "internalType": "uint256",
          "name": "orderID",
          "type": "uint256"
        }
      ],
      "name": "awardItemLaboratory",
      "outputs": [],
      "stateMutability": "nonpayable",
      "type": "function"
    },
    {
      "inputs": [
        {
          "internalType": "address",
          "name": "player",
          "type": "address"
        },
        {
          "internalType": "uint256",
          "name": "orderID",
          "type": "uint256"
        }
      ],
      "name": "awardItemStaking",
      "outputs": [],
      "stateMutability": "nonpayable",
      "type": "function"
    },
    {
      "inputs": [
        {
          "internalType": "address",
          "name": "owner",
          "type": "address"
        }
      ],
      "name": "balanceOf",
      "outputs": [
        {
          "internalType": "uint256",
          "name": "",
          "type": "uint256"
        }
      ],
      "stateMutability": "view",
      "type": "function"
    },
    {
      "inputs": [],
      "name": "card",
      "outputs": [
        {
          "internalType": "contract ICard",
          "name": "",
          "type": "address"
        }
      ],
      "stateMutability": "view",
      "type": "function"
    },
    {
      "inputs": [
        {
          "internalType": "string",
          "name": "newCID",
          "type": "string"
        }
      ],
      "name": "changeLaboratoryCID",
      "outputs": [],
      "stateMutability": "nonpayable",
      "type": "function"
    },
    {
      "inputs": [
        {
          "internalType": "address",
          "name": "newOwner",
          "type": "address"
        }
      ],
      "name": "changeOwner",
      "outputs": [],
      "stateMutability": "nonpayable",
      "type": "function"
    },
    {
      "inputs": [
        {
          "internalType": "string",
          "name": "newCID",
          "type": "string"
        }
      ],
      "name": "changePresaleBaseCID",
      "outputs": [],
      "stateMutability": "nonpayable",
      "type": "function"
    },
    {
      "inputs": [
        {
          "internalType": "string",
          "name": "newCID",
          "type": "string"
        }
      ],
      "name": "changeStakingBaseCID",
      "outputs": [],
      "stateMutability": "nonpayable",
      "type": "function"
    },
    {
      "inputs": [
        {
          "internalType": "uint256",
          "name": "tokenId",
          "type": "uint256"
        }
      ],
      "name": "getApproved",
      "outputs": [
        {
          "internalType": "address",
          "name": "",
          "type": "address"
        }
      ],
      "stateMutability": "view",
      "type": "function"
    },
    {
      "inputs": [],
      "name": "getOwner",
      "outputs": [
        {
          "internalType": "address",
          "name": "",
          "type": "address"
        }
      ],
      "stateMutability": "view",
      "type": "function"
    },
    {
      "inputs": [
        {
          "internalType": "address",
          "name": "owner",
          "type": "address"
        },
        {
          "internalType": "address",
          "name": "operator",
          "type": "address"
        }
      ],
      "name": "isApprovedForAll",
      "outputs": [
        {
          "internalType": "bool",
          "name": "",
          "type": "bool"
        }
      ],
      "stateMutability": "view",
      "type": "function"
    },
    {
      "inputs": [
        {
          "internalType": "address",
          "name": "_add",
          "type": "address"
        },
        {
          "internalType": "uint8",
          "name": "_v",
          "type": "uint8"
        },
        {
          "internalType": "bytes32",
          "name": "_r",
          "type": "bytes32"
        },
        {
          "internalType": "bytes32",
          "name": "_s",
          "type": "bytes32"
        }
      ],
      "name": "isValidAccessMessage",
      "outputs": [
        {
          "internalType": "bool",
          "name": "",
          "type": "bool"
        }
      ],
      "stateMutability": "view",
      "type": "function"
    },
    {
      "inputs": [
        {
          "internalType": "address",
          "name": "_add",
          "type": "address"
        },
        {
          "internalType": "uint8",
          "name": "_v",
          "type": "uint8"
        },
        {
          "internalType": "bytes32",
          "name": "_r",
          "type": "bytes32"
        },
        {
          "internalType": "bytes32",
          "name": "_s",
          "type": "bytes32"
        },
        {
          "internalType": "uint256",
          "name": "orderID",
          "type": "uint256"
        },
        {
          "internalType": "string",
          "name": "_tokenURI",
          "type": "string"
        }
      ],
      "name": "isValidMintMessage",
      "outputs": [
        {
          "internalType": "bool",
          "name": "",
          "type": "bool"
        }
      ],
      "stateMutability": "view",
      "type": "function"
    },
    {
      "inputs": [
        {
          "internalType": "address",
          "name": "player",
          "type": "address"
        }
      ],
      "name": "mintPresale",
      "outputs": [],
      "stateMutability": "nonpayable",
      "type": "function"
    },
    {
      "inputs": [],
      "name": "name",
      "outputs": [
        {
          "internalType": "string",
          "name": "",
          "type": "string"
        }
      ],
      "stateMutability": "view",
      "type": "function"
    },
    {
      "inputs": [
        {
          "internalType": "address",
          "name": "player",
          "type": "address"
        },
        {
          "internalType": "string",
          "name": "tokenURI",
          "type": "string"
        }
      ],
      "name": "ownerMint",
      "outputs": [],
      "stateMutability": "nonpayable",
      "type": "function"
    },
    {
      "inputs": [
        {
          "internalType": "uint256",
          "name": "tokenId",
          "type": "uint256"
        }
      ],
      "name": "ownerOf",
      "outputs": [
        {
          "internalType": "address",
          "name": "",
          "type": "address"
        }
      ],
      "stateMutability": "view",
      "type": "function"
    },
    {
      "inputs": [
        {
          "internalType": "address",
          "name": "from",
          "type": "address"
        },
        {
          "internalType": "address",
          "name": "to",
          "type": "address"
        },
        {
          "internalType": "uint256",
          "name": "tokenId",
          "type": "uint256"
        }
      ],
      "name": "safeTransferFrom",
      "outputs": [],
      "stateMutability": "nonpayable",
      "type": "function"
    },
    {
      "inputs": [
        {
          "internalType": "address",
          "name": "from",
          "type": "address"
        },
        {
          "internalType": "address",
          "name": "to",
          "type": "address"
        },
        {
          "internalType": "uint256",
          "name": "tokenId",
          "type": "uint256"
        },
        {
          "internalType": "bytes",
          "name": "_data",
          "type": "bytes"
        }
      ],
      "name": "safeTransferFrom",
      "outputs": [],
      "stateMutability": "nonpayable",
      "type": "function"
    },
    {
      "inputs": [
        {
          "internalType": "address",
          "name": "operator",
          "type": "address"
        },
        {
          "internalType": "bool",
          "name": "approved",
          "type": "bool"
        }
      ],
      "name": "setApprovalForAll",
      "outputs": [],
      "stateMutability": "nonpayable",
      "type": "function"
    },
    {
      "inputs": [
        {
          "internalType": "address",
          "name": "_card",
          "type": "address"
        }
      ],
      "name": "setCard",
      "outputs": [],
      "stateMutability": "nonpayable",
      "type": "function"
    },
    {
      "inputs": [
        {
          "internalType": "address",
          "name": "_lab",
          "type": "address"
        }
      ],
      "name": "setLabAddress",
      "outputs": [],
      "stateMutability": "nonpayable",
      "type": "function"
    },
    {
      "inputs": [
        {
          "internalType": "address",
          "name": "_presale",
          "type": "address"
        }
      ],
      "name": "setPresaleAddress",
      "outputs": [],
      "stateMutability": "nonpayable",
      "type": "function"
    },
    {
      "inputs": [
        {
          "internalType": "address",
          "name": "_staking",
          "type": "address"
        }
      ],
      "name": "setStakingAddress",
      "outputs": [],
      "stateMutability": "nonpayable",
      "type": "function"
    },
    {
      "inputs": [
        {
          "internalType": "bytes4",
          "name": "interfaceId",
          "type": "bytes4"
        }
      ],
      "name": "supportsInterface",
      "outputs": [
        {
          "internalType": "bool",
          "name": "",
          "type": "bool"
        }
      ],
      "stateMutability": "view",
      "type": "function"
    },
    {
      "inputs": [],
      "name": "symbol",
      "outputs": [
        {
          "internalType": "string",
          "name": "",
          "type": "string"
        }
      ],
      "stateMutability": "view",
      "type": "function"
    },
    {
      "inputs": [
        {
          "internalType": "uint256",
          "name": "tokenId",
          "type": "uint256"
        }
      ],
      "name": "tokenURI",
      "outputs": [
        {
          "internalType": "string",
          "name": "",
          "type": "string"
        }
      ],
      "stateMutability": "view",
      "type": "function"
    },
    {
      "inputs": [
        {
          "internalType": "address",
          "name": "from",
          "type": "address"
        },
        {
          "internalType": "address",
          "name": "to",
          "type": "address"
        },
        {
          "internalType": "uint256",
          "name": "tokenId",
          "type": "uint256"
        }
      ],
      "name": "transferFrom",
      "outputs": [],
      "stateMutability": "nonpayable",
      "type": "function"
    }
  ],
  "bytecode": "0x60806040526040518060600160405280602e815260200162004673602e9139600a908051906020019062000035929190620002e2565b506040518060400160405280600581526020017f2e6a736f6e000000000000000000000000000000000000000000000000000000815250600b908051906020019062000083929190620002e2565b5060405180602001604052806000815250600c9080519060200190620000ab929190620002e2565b506040518060400160405280600581526020017f2e6a736f6e000000000000000000000000000000000000000000000000000000815250600d9080519060200190620000f9929190620002e2565b5060405180602001604052806000815250600e908051906020019062000121929190620002e2565b506040518060400160405280600581526020017f2e6a736f6e000000000000000000000000000000000000000000000000000000815250600f90805190602001906200016f929190620002e2565b503480156200017d57600080fd5b506040518060400160405280600e81526020017f4469676974616c2e476f6c656d730000000000000000000000000000000000008152506040518060400160405280600381526020017f4449470000000000000000000000000000000000000000000000000000000000815250816000908051906020019062000202929190620002e2565b5080600190805190602001906200021b929190620002e2565b50505033600860006101000a81548173ffffffffffffffffffffffffffffffffffffffff021916908373ffffffffffffffffffffffffffffffffffffffff160217905550600860009054906101000a900473ffffffffffffffffffffffffffffffffffffffff1673ffffffffffffffffffffffffffffffffffffffff16600073ffffffffffffffffffffffffffffffffffffffff167f342827c97908e5e2f71151c08502a66d44b6f758e3ac2f1de95f02eb95f0a73560405160405180910390a3620003f7565b828054620002f090620003c1565b90600052602060002090601f01602090048101928262000314576000855562000360565b82601f106200032f57805160ff191683800117855562000360565b8280016001018555821562000360579182015b828111156200035f57825182559160200191906001019062000342565b5b5090506200036f919062000373565b5090565b5b808211156200038e57600081600090555060010162000374565b5090565b7f4e487b7100000000000000000000000000000000000000000000000000000000600052602260045260246000fd5b60006002820490506001821680620003da57607f821691505b60208210811415620003f157620003f062000392565b5b50919050565b61426c80620004076000396000f3fe608060405234801561001057600080fd5b50600436106101cf5760003560e01c80638d7f5ae011610104578063b88d4fde116100a2578063dd3c5eaf11610071578063dd3c5eaf14610524578063e7345ad314610540578063e985e9c51461055c578063f4e0d9ac1461058c576101cf565b8063b88d4fde146104a0578063bdb9f28d146104bc578063c87b56dd146104d8578063c8f7439f14610508576101cf565b80639ec8f8aa116100de5780639ec8f8aa1461042e5780639f21b3351461044c578063a22cb46514610468578063a6f9dae114610484576101cf565b80638d7f5ae0146103d857806395d89b41146103f457806397bbb3bd14610412576101cf565b806341d5b803116101715780636352211e1161014b5780636352211e1461033e57806370a082311461036e5780637976df051461039e578063893d20e8146103ba576101cf565b806341d5b803146102ea57806342842e0e146103065780635cb3d9a614610322576101cf565b8063095ea7b3116101ad578063095ea7b3146102525780631cd14eed1461026e57806323b872dd1461029e57806332624114146102ba576101cf565b806301ffc9a7146101d457806306fdde0314610204578063081812fc14610222575b600080fd5b6101ee60048036038101906101e99190612caa565b6105a8565b6040516101fb9190612cf2565b60405180910390f35b61020c61068a565b6040516102199190612da6565b60405180910390f35b61023c60048036038101906102379190612dfe565b61071c565b6040516102499190612e6c565b60405180910390f35b61026c60048036038101906102679190612eb3565b6107a1565b005b61028860048036038101906102839190613097565b6108ab565b6040516102959190612cf2565b60405180910390f35b6102b860048036038101906102b39190613140565b6109af565b005b6102d460048036038101906102cf9190613193565b610a08565b6040516102e19190612cf2565b60405180910390f35b61030460048036038101906102ff91906131fa565b610b06565b005b610320600480360381019061031b9190613140565b610c56565b005b61033c60048036038101906103379190613256565b610c76565b005b61035860048036038101906103539190612dfe565b610d20565b6040516103659190612e6c565b60405180910390f35b6103886004803603810190610383919061329f565b610dd2565b60405161039591906132db565b60405180910390f35b6103b860048036038101906103b39190612eb3565b610e8a565b005b6103c26110c3565b6040516103cf9190612e6c565b60405180910390f35b6103f260048036038101906103ed919061329f565b6110ed565b005b6103fc611325565b6040516104099190612da6565b60405180910390f35b61042c6004803603810190610427919061329f565b6113b7565b005b61043661148b565b6040516104439190613355565b60405180910390f35b61046660048036038101906104619190613256565b6114b1565b005b610482600480360381019061047d919061339c565b61155b565b005b61049e6004803603810190610499919061329f565b6116c7565b005b6104ba60048036038101906104b5919061347d565b611817565b005b6104d660048036038101906104d1919061329f565b611872565b005b6104f260048036038101906104ed9190612dfe565b611946565b6040516104ff9190612da6565b60405180910390f35b610522600480360381019061051d9190613256565b611a98565b005b61053e6004803603810190610539919061329f565b611b42565b005b61055a60048036038101906105559190612eb3565b611c16565b005b61057660048036038101906105719190613500565b611e4f565b6040516105839190612cf2565b60405180910390f35b6105a660048036038101906105a1919061329f565b611ee3565b005b60007f80ac58cd000000000000000000000000000000000000000000000000000000007bffffffffffffffffffffffffffffffffffffffffffffffffffffffff1916827bffffffffffffffffffffffffffffffffffffffffffffffffffffffff1916148061067357507f5b5e139f000000000000000000000000000000000000000000000000000000007bffffffffffffffffffffffffffffffffffffffffffffffffffffffff1916827bffffffffffffffffffffffffffffffffffffffffffffffffffffffff1916145b80610683575061068282611fb7565b5b9050919050565b6060600080546106999061356f565b80601f01602080910402602001604051908101604052809291908181526020018280546106c59061356f565b80156107125780601f106106e757610100808354040283529160200191610712565b820191906000526020600020905b8154815290600101906020018083116106f557829003601f168201915b5050505050905090565b600061072782612021565b610766576040517f08c379a000000000000000000000000000000000000000000000000000000000815260040161075d906135ed565b60405180910390fd5b6005600083815260200190815260200160002060009054906101000a900473ffffffffffffffffffffffffffffffffffffffff169050919050565b60006107ac82610d20565b90508073ffffffffffffffffffffffffffffffffffffffff168373ffffffffffffffffffffffffffffffffffffffff16141561081d576040517f08c379a000000000000000000000000000000000000000000000000000000000815260040161081490613659565b60405180910390fd5b8073ffffffffffffffffffffffffffffffffffffffff163373ffffffffffffffffffffffffffffffffffffffff16148061085d575061085c8133611e4f565b5b61089c576040517f08c379a0000000000000000000000000000000000000000000000000000000008152600401610893906136c5565b60405180910390fd5b6108a6838361208d565b505050565b6000803083858a6040516020016108c5949392919061378a565b6040516020818303038152906040528051906020012090506001816040516020016108f09190613841565b60405160208183030381529060405280519060200120888888604051600081526020016040526040516109269493929190613885565b6020604051602081039080840390855afa158015610948573d6000803e3d6000fd5b5050506020604051035173ffffffffffffffffffffffffffffffffffffffff16600860009054906101000a900473ffffffffffffffffffffffffffffffffffffffff1673ffffffffffffffffffffffffffffffffffffffff16149150509695505050505050565b6109b93382612146565b6109f8576040517f08c379a00000000000000000000000000000000000000000000000000000000081526004016109ef90613916565b60405180910390fd5b610a03838383612224565b505050565b6000803086604051602001610a1e929190613936565b604051602081830303815290604052805190602001209050600181604051602001610a499190613841565b6040516020818303038152906040528051906020012086868660405160008152602001604052604051610a7f9493929190613885565b6020604051602081039080840390855afa158015610aa1573d6000803e3d6000fd5b5050506020604051035173ffffffffffffffffffffffffffffffffffffffff16600860009054906101000a900473ffffffffffffffffffffffffffffffffffffffff1673ffffffffffffffffffffffffffffffffffffffff1614915050949350505050565b600860009054906101000a900473ffffffffffffffffffffffffffffffffffffffff1673ffffffffffffffffffffffffffffffffffffffff163373ffffffffffffffffffffffffffffffffffffffff1614610b96576040517f08c379a0000000000000000000000000000000000000000000000000000000008152600401610b8d906139ae565b60405180910390fd5b610ba06009612511565b6000610bac6009612527565b9050610bb88382612535565b610bc28183612703565b600260009054906101000a900473ffffffffffffffffffffffffffffffffffffffff1673ffffffffffffffffffffffffffffffffffffffff16635de038b184836040518363ffffffff1660e01b8152600401610c1f9291906139ce565b600060405180830381600087803b158015610c3957600080fd5b505af1158015610c4d573d6000803e3d6000fd5b50505050505050565b610c7183838360405180602001604052806000815250611817565b505050565b600860009054906101000a900473ffffffffffffffffffffffffffffffffffffffff1673ffffffffffffffffffffffffffffffffffffffff163373ffffffffffffffffffffffffffffffffffffffff1614610d06576040517f08c379a0000000000000000000000000000000000000000000000000000000008152600401610cfd906139ae565b60405180910390fd5b80600a9080519060200190610d1c929190612b9b565b5050565b6000806003600084815260200190815260200160002060009054906101000a900473ffffffffffffffffffffffffffffffffffffffff169050600073ffffffffffffffffffffffffffffffffffffffff168173ffffffffffffffffffffffffffffffffffffffff161415610dc9576040517f08c379a0000000000000000000000000000000000000000000000000000000008152600401610dc0906135ed565b60405180910390fd5b80915050919050565b60008073ffffffffffffffffffffffffffffffffffffffff168273ffffffffffffffffffffffffffffffffffffffff161415610e43576040517f08c379a0000000000000000000000000000000000000000000000000000000008152600401610e3a90613a43565b60405180910390fd5b600460008373ffffffffffffffffffffffffffffffffffffffff1673ffffffffffffffffffffffffffffffffffffffff168152602001908152602001600020549050919050565b601160009054906101000a900473ffffffffffffffffffffffffffffffffffffffff1673ffffffffffffffffffffffffffffffffffffffff163373ffffffffffffffffffffffffffffffffffffffff161480610f335750601060009054906101000a900473ffffffffffffffffffffffffffffffffffffffff1673ffffffffffffffffffffffffffffffffffffffff163373ffffffffffffffffffffffffffffffffffffffff16145b80610f8b5750601260009054906101000a900473ffffffffffffffffffffffffffffffffffffffff1673ffffffffffffffffffffffffffffffffffffffff163373ffffffffffffffffffffffffffffffffffffffff16145b610fca576040517f08c379a0000000000000000000000000000000000000000000000000000000008152600401610fc190613aaf565b60405180910390fd5b610fd46009612511565b6000610fe06009612527565b9050610fec8382612535565b6000610ff783612777565b90506000600e82600f60405160200161101293929190613bfb565b604051602081830303815290604052905061102d8382612703565b600260009054906101000a900473ffffffffffffffffffffffffffffffffffffffff1673ffffffffffffffffffffffffffffffffffffffff16635de038b186856040518363ffffffff1660e01b815260040161108a9291906139ce565b600060405180830381600087803b1580156110a457600080fd5b505af11580156110b8573d6000803e3d6000fd5b505050505050505050565b6000600860009054906101000a900473ffffffffffffffffffffffffffffffffffffffff16905090565b601160009054906101000a900473ffffffffffffffffffffffffffffffffffffffff1673ffffffffffffffffffffffffffffffffffffffff163373ffffffffffffffffffffffffffffffffffffffff1614806111965750601060009054906101000a900473ffffffffffffffffffffffffffffffffffffffff1673ffffffffffffffffffffffffffffffffffffffff163373ffffffffffffffffffffffffffffffffffffffff16145b806111ee5750601260009054906101000a900473ffffffffffffffffffffffffffffffffffffffff1673ffffffffffffffffffffffffffffffffffffffff163373ffffffffffffffffffffffffffffffffffffffff16145b61122d576040517f08c379a000000000000000000000000000000000000000000000000000000000815260040161122490613aaf565b60405180910390fd5b6112376009612511565b60006112436009612527565b905061124f8282612535565b600061125a82612777565b90506000600a82600b60405160200161127593929190613bfb565b60405160208183030381529060405290506112908382612703565b600260009054906101000a900473ffffffffffffffffffffffffffffffffffffffff1673ffffffffffffffffffffffffffffffffffffffff16635de038b185856040518363ffffffff1660e01b81526004016112ed9291906139ce565b600060405180830381600087803b15801561130757600080fd5b505af115801561131b573d6000803e3d6000fd5b5050505050505050565b6060600180546113349061356f565b80601f01602080910402602001604051908101604052809291908181526020018280546113609061356f565b80156113ad5780601f10611382576101008083540402835291602001916113ad565b820191906000526020600020905b81548152906001019060200180831161139057829003601f168201915b5050505050905090565b600860009054906101000a900473ffffffffffffffffffffffffffffffffffffffff1673ffffffffffffffffffffffffffffffffffffffff163373ffffffffffffffffffffffffffffffffffffffff1614611447576040517f08c379a000000000000000000000000000000000000000000000000000000000815260040161143e906139ae565b60405180910390fd5b80600260006101000a81548173ffffffffffffffffffffffffffffffffffffffff021916908373ffffffffffffffffffffffffffffffffffffffff16021790555050565b600260009054906101000a900473ffffffffffffffffffffffffffffffffffffffff1681565b600860009054906101000a900473ffffffffffffffffffffffffffffffffffffffff1673ffffffffffffffffffffffffffffffffffffffff163373ffffffffffffffffffffffffffffffffffffffff1614611541576040517f08c379a0000000000000000000000000000000000000000000000000000000008152600401611538906139ae565b60405180910390fd5b80600e9080519060200190611557929190612b9b565b5050565b3373ffffffffffffffffffffffffffffffffffffffff168273ffffffffffffffffffffffffffffffffffffffff1614156115ca576040517f08c379a00000000000000000000000000000000000000000000000000000000081526004016115c190613c8e565b60405180910390fd5b80600660003373ffffffffffffffffffffffffffffffffffffffff1673ffffffffffffffffffffffffffffffffffffffff16815260200190815260200160002060008473ffffffffffffffffffffffffffffffffffffffff1673ffffffffffffffffffffffffffffffffffffffff16815260200190815260200160002060006101000a81548160ff0219169083151502179055508173ffffffffffffffffffffffffffffffffffffffff163373ffffffffffffffffffffffffffffffffffffffff167f17307eab39ab6107e8899845ad3d59bd9653f200f220920489ca2b5937696c31836040516116bb9190612cf2565b60405180910390a35050565b600860009054906101000a900473ffffffffffffffffffffffffffffffffffffffff1673ffffffffffffffffffffffffffffffffffffffff163373ffffffffffffffffffffffffffffffffffffffff1614611757576040517f08c379a000000000000000000000000000000000000000000000000000000000815260040161174e906139ae565b60405180910390fd5b8073ffffffffffffffffffffffffffffffffffffffff16600860009054906101000a900473ffffffffffffffffffffffffffffffffffffffff1673ffffffffffffffffffffffffffffffffffffffff167f342827c97908e5e2f71151c08502a66d44b6f758e3ac2f1de95f02eb95f0a73560405160405180910390a380600860006101000a81548173ffffffffffffffffffffffffffffffffffffffff021916908373ffffffffffffffffffffffffffffffffffffffff16021790555050565b6118213383612146565b611860576040517f08c379a000000000000000000000000000000000000000000000000000000000815260040161185790613916565b60405180910390fd5b61186c848484846128d8565b50505050565b600860009054906101000a900473ffffffffffffffffffffffffffffffffffffffff1673ffffffffffffffffffffffffffffffffffffffff163373ffffffffffffffffffffffffffffffffffffffff1614611902576040517f08c379a00000000000000000000000000000000000000000000000000000000081526004016118f9906139ae565b60405180910390fd5b80601160006101000a81548173ffffffffffffffffffffffffffffffffffffffff021916908373ffffffffffffffffffffffffffffffffffffffff16021790555050565b606061195182612021565b611990576040517f08c379a000000000000000000000000000000000000000000000000000000000815260040161198790613cfa565b60405180910390fd5b60006007600084815260200190815260200160002080546119b09061356f565b80601f01602080910402602001604051908101604052809291908181526020018280546119dc9061356f565b8015611a295780601f106119fe57610100808354040283529160200191611a29565b820191906000526020600020905b815481529060010190602001808311611a0c57829003601f168201915b505050505090506000611a3a612934565b9050600081511415611a50578192505050611a93565b600082511115611a85578082604051602001611a6d929190613d1a565b60405160208183030381529060405292505050611a93565b611a8e8461294b565b925050505b919050565b600860009054906101000a900473ffffffffffffffffffffffffffffffffffffffff1673ffffffffffffffffffffffffffffffffffffffff163373ffffffffffffffffffffffffffffffffffffffff1614611b28576040517f08c379a0000000000000000000000000000000000000000000000000000000008152600401611b1f906139ae565b60405180910390fd5b80600c9080519060200190611b3e929190612b9b565b5050565b600860009054906101000a900473ffffffffffffffffffffffffffffffffffffffff1673ffffffffffffffffffffffffffffffffffffffff163373ffffffffffffffffffffffffffffffffffffffff1614611bd2576040517f08c379a0000000000000000000000000000000000000000000000000000000008152600401611bc9906139ae565b60405180910390fd5b80601260006101000a81548173ffffffffffffffffffffffffffffffffffffffff021916908373ffffffffffffffffffffffffffffffffffffffff16021790555050565b601160009054906101000a900473ffffffffffffffffffffffffffffffffffffffff1673ffffffffffffffffffffffffffffffffffffffff163373ffffffffffffffffffffffffffffffffffffffff161480611cbf5750601060009054906101000a900473ffffffffffffffffffffffffffffffffffffffff1673ffffffffffffffffffffffffffffffffffffffff163373ffffffffffffffffffffffffffffffffffffffff16145b80611d175750601260009054906101000a900473ffffffffffffffffffffffffffffffffffffffff1673ffffffffffffffffffffffffffffffffffffffff163373ffffffffffffffffffffffffffffffffffffffff16145b611d56576040517f08c379a0000000000000000000000000000000000000000000000000000000008152600401611d4d90613aaf565b60405180910390fd5b611d606009612511565b6000611d6c6009612527565b9050611d788382612535565b6000611d8383612777565b90506000600c82600d604051602001611d9e93929190613bfb565b6040516020818303038152906040529050611db98382612703565b600260009054906101000a900473ffffffffffffffffffffffffffffffffffffffff1673ffffffffffffffffffffffffffffffffffffffff16635de038b186856040518363ffffffff1660e01b8152600401611e169291906139ce565b600060405180830381600087803b158015611e3057600080fd5b505af1158015611e44573d6000803e3d6000fd5b505050505050505050565b6000600660008473ffffffffffffffffffffffffffffffffffffffff1673ffffffffffffffffffffffffffffffffffffffff16815260200190815260200160002060008373ffffffffffffffffffffffffffffffffffffffff1673ffffffffffffffffffffffffffffffffffffffff16815260200190815260200160002060009054906101000a900460ff16905092915050565b600860009054906101000a900473ffffffffffffffffffffffffffffffffffffffff1673ffffffffffffffffffffffffffffffffffffffff163373ffffffffffffffffffffffffffffffffffffffff1614611f73576040517f08c379a0000000000000000000000000000000000000000000000000000000008152600401611f6a906139ae565b60405180910390fd5b80601060006101000a81548173ffffffffffffffffffffffffffffffffffffffff021916908373ffffffffffffffffffffffffffffffffffffffff16021790555050565b60007f01ffc9a7000000000000000000000000000000000000000000000000000000007bffffffffffffffffffffffffffffffffffffffffffffffffffffffff1916827bffffffffffffffffffffffffffffffffffffffffffffffffffffffff1916149050919050565b60008073ffffffffffffffffffffffffffffffffffffffff166003600084815260200190815260200160002060009054906101000a900473ffffffffffffffffffffffffffffffffffffffff1673ffffffffffffffffffffffffffffffffffffffff1614159050919050565b816005600083815260200190815260200160002060006101000a81548173ffffffffffffffffffffffffffffffffffffffff021916908373ffffffffffffffffffffffffffffffffffffffff160217905550808273ffffffffffffffffffffffffffffffffffffffff1661210083610d20565b73ffffffffffffffffffffffffffffffffffffffff167f8c5be1e5ebec7d5bd14f71427d1e84f3dd0314c0f7b2291e5b200ac8c7c3b92560405160405180910390a45050565b600061215182612021565b612190576040517f08c379a0000000000000000000000000000000000000000000000000000000008152600401612187906135ed565b60405180910390fd5b600061219b83610d20565b90508073ffffffffffffffffffffffffffffffffffffffff168473ffffffffffffffffffffffffffffffffffffffff16148061220a57508373ffffffffffffffffffffffffffffffffffffffff166121f28461071c565b73ffffffffffffffffffffffffffffffffffffffff16145b8061221b575061221a8185611e4f565b5b91505092915050565b8273ffffffffffffffffffffffffffffffffffffffff1661224482610d20565b73ffffffffffffffffffffffffffffffffffffffff161461229a576040517f08c379a000000000000000000000000000000000000000000000000000000000815260040161229190613d8a565b60405180910390fd5b600073ffffffffffffffffffffffffffffffffffffffff168273ffffffffffffffffffffffffffffffffffffffff16141561230a576040517f08c379a000000000000000000000000000000000000000000000000000000000815260040161230190613df6565b60405180910390fd5b6123158383836129f2565b600260009054906101000a900473ffffffffffffffffffffffffffffffffffffffff1673ffffffffffffffffffffffffffffffffffffffff1663f0918c298285856040518463ffffffff1660e01b815260040161237493929190613e16565b600060405180830381600087803b15801561238e57600080fd5b505af11580156123a2573d6000803e3d6000fd5b505050506123b160008261208d565b6001600460008573ffffffffffffffffffffffffffffffffffffffff1673ffffffffffffffffffffffffffffffffffffffff16815260200190815260200160002060008282546124019190613e7c565b925050819055506001600460008473ffffffffffffffffffffffffffffffffffffffff1673ffffffffffffffffffffffffffffffffffffffff16815260200190815260200160002060008282546124589190613eb0565b92505081905550816003600083815260200190815260200160002060006101000a81548173ffffffffffffffffffffffffffffffffffffffff021916908373ffffffffffffffffffffffffffffffffffffffff160217905550808273ffffffffffffffffffffffffffffffffffffffff168473ffffffffffffffffffffffffffffffffffffffff167fddf252ad1be2c89b69c2b068fc378daa952ba7f163c4a11628f55a4df523b3ef60405160405180910390a4505050565b6001816000016000828254019250508190555050565b600081600001549050919050565b600073ffffffffffffffffffffffffffffffffffffffff168273ffffffffffffffffffffffffffffffffffffffff1614156125a5576040517f08c379a000000000000000000000000000000000000000000000000000000000815260040161259c90613f52565b60405180910390fd5b6125ae81612021565b156125ee576040517f08c379a00000000000000000000000000000000000000000000000000000000081526004016125e590613fbe565b60405180910390fd5b6125fa600083836129f2565b6001600460008473ffffffffffffffffffffffffffffffffffffffff1673ffffffffffffffffffffffffffffffffffffffff168152602001908152602001600020600082825461264a9190613eb0565b92505081905550816003600083815260200190815260200160002060006101000a81548173ffffffffffffffffffffffffffffffffffffffff021916908373ffffffffffffffffffffffffffffffffffffffff160217905550808273ffffffffffffffffffffffffffffffffffffffff16600073ffffffffffffffffffffffffffffffffffffffff167fddf252ad1be2c89b69c2b068fc378daa952ba7f163c4a11628f55a4df523b3ef60405160405180910390a45050565b61270c82612021565b61274b576040517f08c379a000000000000000000000000000000000000000000000000000000000815260040161274290613cfa565b60405180910390fd5b80600760008481526020019081526020016000209080519060200190612772929190612b9b565b505050565b606060008214156127bf576040518060400160405280600181526020017f300000000000000000000000000000000000000000000000000000000000000081525090506128d3565b600082905060005b600082146127f15780806127da90613fde565b915050600a826127ea9190614056565b91506127c7565b60008167ffffffffffffffff81111561280d5761280c612f6c565b5b6040519080825280601f01601f19166020018201604052801561283f5781602001600182028036833780820191505090505b5090505b600085146128cc576001826128589190613e7c565b9150600a856128679190614087565b60306128739190613eb0565b60f81b818381518110612889576128886140b8565b5b60200101907effffffffffffffffffffffffffffffffffffffffffffffffffffffffffffff1916908160001a905350600a856128c59190614056565b9450612843565b8093505050505b919050565b6128e3848484612224565b6128ef848484846129f7565b61292e576040517f08c379a000000000000000000000000000000000000000000000000000000000815260040161292590614133565b60405180910390fd5b50505050565b606060405180602001604052806000815250905090565b606061295682612021565b612995576040517f08c379a000000000000000000000000000000000000000000000000000000000815260040161298c906135ed565b60405180910390fd5b600061299f612934565b905060008151116129bf57604051806020016040528060008152506129ea565b806129c984612777565b6040516020016129da929190613d1a565b6040516020818303038152906040525b915050919050565b505050565b6000612a188473ffffffffffffffffffffffffffffffffffffffff16612b78565b15612b6b578373ffffffffffffffffffffffffffffffffffffffff1663150b7a02338786866040518563ffffffff1660e01b8152600401612a5c94939291906141a8565b6020604051808303816000875af1925050508015612a9857506040513d601f19601f82011682018060405250810190612a959190614209565b60015b612b1b573d8060008114612ac8576040519150601f19603f3d011682016040523d82523d6000602084013e612acd565b606091505b50600081511415612b13576040517f08c379a0000000000000000000000000000000000000000000000000000000008152600401612b0a90614133565b60405180910390fd5b805181602001fd5b63150b7a0260e01b7bffffffffffffffffffffffffffffffffffffffffffffffffffffffff1916817bffffffffffffffffffffffffffffffffffffffffffffffffffffffff191614915050612b70565b600190505b949350505050565b6000808273ffffffffffffffffffffffffffffffffffffffff163b119050919050565b828054612ba79061356f565b90600052602060002090601f016020900481019282612bc95760008555612c10565b82601f10612be257805160ff1916838001178555612c10565b82800160010185558215612c10579182015b82811115612c0f578251825591602001919060010190612bf4565b5b509050612c1d9190612c21565b5090565b5b80821115612c3a576000816000905550600101612c22565b5090565b6000604051905090565b600080fd5b600080fd5b60007fffffffff0000000000000000000000000000000000000000000000000000000082169050919050565b612c8781612c52565b8114612c9257600080fd5b50565b600081359050612ca481612c7e565b92915050565b600060208284031215612cc057612cbf612c48565b5b6000612cce84828501612c95565b91505092915050565b60008115159050919050565b612cec81612cd7565b82525050565b6000602082019050612d076000830184612ce3565b92915050565b600081519050919050565b600082825260208201905092915050565b60005b83811015612d47578082015181840152602081019050612d2c565b83811115612d56576000848401525b50505050565b6000601f19601f8301169050919050565b6000612d7882612d0d565b612d828185612d18565b9350612d92818560208601612d29565b612d9b81612d5c565b840191505092915050565b60006020820190508181036000830152612dc08184612d6d565b905092915050565b6000819050919050565b612ddb81612dc8565b8114612de657600080fd5b50565b600081359050612df881612dd2565b92915050565b600060208284031215612e1457612e13612c48565b5b6000612e2284828501612de9565b91505092915050565b600073ffffffffffffffffffffffffffffffffffffffff82169050919050565b6000612e5682612e2b565b9050919050565b612e6681612e4b565b82525050565b6000602082019050612e816000830184612e5d565b92915050565b612e9081612e4b565b8114612e9b57600080fd5b50565b600081359050612ead81612e87565b92915050565b60008060408385031215612eca57612ec9612c48565b5b6000612ed885828601612e9e565b9250506020612ee985828601612de9565b9150509250929050565b600060ff82169050919050565b612f0981612ef3565b8114612f1457600080fd5b50565b600081359050612f2681612f00565b92915050565b6000819050919050565b612f3f81612f2c565b8114612f4a57600080fd5b50565b600081359050612f5c81612f36565b92915050565b600080fd5b600080fd5b7f4e487b7100000000000000000000000000000000000000000000000000000000600052604160045260246000fd5b612fa482612d5c565b810181811067ffffffffffffffff82111715612fc357612fc2612f6c565b5b80604052505050565b6000612fd6612c3e565b9050612fe28282612f9b565b919050565b600067ffffffffffffffff82111561300257613001612f6c565b5b61300b82612d5c565b9050602081019050919050565b82818337600083830152505050565b600061303a61303584612fe7565b612fcc565b90508281526020810184848401111561305657613055612f67565b5b613061848285613018565b509392505050565b600082601f83011261307e5761307d612f62565b5b813561308e848260208601613027565b91505092915050565b60008060008060008060c087890312156130b4576130b3612c48565b5b60006130c289828a01612e9e565b96505060206130d389828a01612f17565b95505060406130e489828a01612f4d565b94505060606130f589828a01612f4d565b935050608061310689828a01612de9565b92505060a087013567ffffffffffffffff81111561312757613126612c4d565b5b61313389828a01613069565b9150509295509295509295565b60008060006060848603121561315957613158612c48565b5b600061316786828701612e9e565b935050602061317886828701612e9e565b925050604061318986828701612de9565b9150509250925092565b600080600080608085870312156131ad576131ac612c48565b5b60006131bb87828801612e9e565b94505060206131cc87828801612f17565b93505060406131dd87828801612f4d565b92505060606131ee87828801612f4d565b91505092959194509250565b6000806040838503121561321157613210612c48565b5b600061321f85828601612e9e565b925050602083013567ffffffffffffffff8111156132405761323f612c4d565b5b61324c85828601613069565b9150509250929050565b60006020828403121561326c5761326b612c48565b5b600082013567ffffffffffffffff81111561328a57613289612c4d565b5b61329684828501613069565b91505092915050565b6000602082840312156132b5576132b4612c48565b5b60006132c384828501612e9e565b91505092915050565b6132d581612dc8565b82525050565b60006020820190506132f060008301846132cc565b92915050565b6000819050919050565b600061331b61331661331184612e2b565b6132f6565b612e2b565b9050919050565b600061332d82613300565b9050919050565b600061333f82613322565b9050919050565b61334f81613334565b82525050565b600060208201905061336a6000830184613346565b92915050565b61337981612cd7565b811461338457600080fd5b50565b60008135905061339681613370565b92915050565b600080604083850312156133b3576133b2612c48565b5b60006133c185828601612e9e565b92505060206133d285828601613387565b9150509250929050565b600067ffffffffffffffff8211156133f7576133f6612f6c565b5b61340082612d5c565b9050602081019050919050565b600061342061341b846133dc565b612fcc565b90508281526020810184848401111561343c5761343b612f67565b5b613447848285613018565b509392505050565b600082601f83011261346457613463612f62565b5b813561347484826020860161340d565b91505092915050565b6000806000806080858703121561349757613496612c48565b5b60006134a587828801612e9e565b94505060206134b687828801612e9e565b93505060406134c787828801612de9565b925050606085013567ffffffffffffffff8111156134e8576134e7612c4d565b5b6134f48782880161344f565b91505092959194509250565b6000806040838503121561351757613516612c48565b5b600061352585828601612e9e565b925050602061353685828601612e9e565b9150509250929050565b7f4e487b7100000000000000000000000000000000000000000000000000000000600052602260045260246000fd5b6000600282049050600182168061358757607f821691505b6020821081141561359b5761359a613540565b5b50919050565b7f4e6f6e6578697374656e7420746f6b656e000000000000000000000000000000600082015250565b60006135d7601183612d18565b91506135e2826135a1565b602082019050919050565b60006020820190508181036000830152613606816135ca565b9050919050565b7f546f206f776e6572000000000000000000000000000000000000000000000000600082015250565b6000613643600883612d18565b915061364e8261360d565b602082019050919050565b6000602082019050818103600083015261367281613636565b9050919050565b7f4e6f74206f776e6572206e6f7220617070726f76656420666f7220616c6c0000600082015250565b60006136af601e83612d18565b91506136ba82613679565b602082019050919050565b600060208201905081810360008301526136de816136a2565b9050919050565b60008160601b9050919050565b60006136fd826136e5565b9050919050565b600061370f826136f2565b9050919050565b61372761372282612e4b565b613704565b82525050565b600081905092915050565b600061374382612d0d565b61374d818561372d565b935061375d818560208601612d29565b80840191505092915050565b6000819050919050565b61378461377f82612dc8565b613769565b82525050565b60006137968287613716565b6014820191506137a68286613738565b91506137b28285613773565b6020820191506137c28284613716565b60148201915081905095945050505050565b7f19457468657265756d205369676e6564204d6573736167653a0a333200000000600082015250565b600061380a601c8361372d565b9150613815826137d4565b601c82019050919050565b6000819050919050565b61383b61383682612f2c565b613820565b82525050565b600061384c826137fd565b9150613858828461382a565b60208201915081905092915050565b61387081612f2c565b82525050565b61387f81612ef3565b82525050565b600060808201905061389a6000830187613867565b6138a76020830186613876565b6138b46040830185613867565b6138c16060830184613867565b95945050505050565b7f4e6f74206f776e6572206e6f7220617070726f76656400000000000000000000600082015250565b6000613900601683612d18565b915061390b826138ca565b602082019050919050565b6000602082019050818103600083015261392f816138f3565b9050919050565b60006139428285613716565b6014820191506139528284613716565b6014820191508190509392505050565b7f43616c6c6572206973206e6f74206f776e657200000000000000000000000000600082015250565b6000613998601383612d18565b91506139a382613962565b602082019050919050565b600060208201905081810360008301526139c78161398b565b9050919050565b60006040820190506139e36000830185612e5d565b6139f060208301846132cc565b9392505050565b7f5a65726f20616464726573730000000000000000000000000000000000000000600082015250565b6000613a2d600c83612d18565b9150613a38826139f7565b602082019050919050565b60006020820190508181036000830152613a5c81613a20565b9050919050565b7f6f6e6c792056616c696420416464726573736573000000000000000000000000600082015250565b6000613a99601483612d18565b9150613aa482613a63565b602082019050919050565b60006020820190508181036000830152613ac881613a8c565b9050919050565b7f68747470733a2f2f697066732e696f2f697066732f0000000000000000000000600082015250565b6000613b0560158361372d565b9150613b1082613acf565b601582019050919050565b60008190508160005260206000209050919050565b60008154613b3d8161356f565b613b47818661372d565b94506001821660008114613b625760018114613b7357613ba6565b60ff19831686528186019350613ba6565b613b7c85613b1b565b60005b83811015613b9e57815481890152600182019150602081019050613b7f565b838801955050505b50505092915050565b7f2f00000000000000000000000000000000000000000000000000000000000000600082015250565b6000613be560018361372d565b9150613bf082613baf565b600182019050919050565b6000613c0682613af8565b9150613c128286613b30565b9150613c1d82613bd8565b9150613c298285613738565b9150613c358284613b30565b9150819050949350505050565b7f417070726f766520746f2063616c6c6572000000000000000000000000000000600082015250565b6000613c78601183612d18565b9150613c8382613c42565b602082019050919050565b60006020820190508181036000830152613ca781613c6b565b9050919050565b7f555249206f66206e6f6e6578697374656e7420746f6b656e0000000000000000600082015250565b6000613ce4601883612d18565b9150613cef82613cae565b602082019050919050565b60006020820190508181036000830152613d1381613cd7565b9050919050565b6000613d268285613738565b9150613d328284613738565b91508190509392505050565b7f4e6f74206f776e65720000000000000000000000000000000000000000000000600082015250565b6000613d74600983612d18565b9150613d7f82613d3e565b602082019050919050565b60006020820190508181036000830152613da381613d67565b9050919050565b7f546f20746865207a65726f206164647265737300000000000000000000000000600082015250565b6000613de0601383612d18565b9150613deb82613daa565b602082019050919050565b60006020820190508181036000830152613e0f81613dd3565b9050919050565b6000606082019050613e2b60008301866132cc565b613e386020830185612e5d565b613e456040830184612e5d565b949350505050565b7f4e487b7100000000000000000000000000000000000000000000000000000000600052601160045260246000fd5b6000613e8782612dc8565b9150613e9283612dc8565b925082821015613ea557613ea4613e4d565b5b828203905092915050565b6000613ebb82612dc8565b9150613ec683612dc8565b9250827fffffffffffffffffffffffffffffffffffffffffffffffffffffffffffffffff03821115613efb57613efa613e4d565b5b828201905092915050565b7f546f205a65726f20616464726573730000000000000000000000000000000000600082015250565b6000613f3c600f83612d18565b9150613f4782613f06565b602082019050919050565b60006020820190508181036000830152613f6b81613f2f565b9050919050565b7f416c7265616479206d696e746564000000000000000000000000000000000000600082015250565b6000613fa8600e83612d18565b9150613fb382613f72565b602082019050919050565b60006020820190508181036000830152613fd781613f9b565b9050919050565b6000613fe982612dc8565b91507fffffffffffffffffffffffffffffffffffffffffffffffffffffffffffffffff82141561401c5761401b613e4d565b5b600182019050919050565b7f4e487b7100000000000000000000000000000000000000000000000000000000600052601260045260246000fd5b600061406182612dc8565b915061406c83612dc8565b92508261407c5761407b614027565b5b828204905092915050565b600061409282612dc8565b915061409d83612dc8565b9250826140ad576140ac614027565b5b828206905092915050565b7f4e487b7100000000000000000000000000000000000000000000000000000000600052603260045260246000fd5b7f4e6f6e2072656365697665720000000000000000000000000000000000000000600082015250565b600061411d600c83612d18565b9150614128826140e7565b602082019050919050565b6000602082019050818103600083015261414c81614110565b9050919050565b600081519050919050565b600082825260208201905092915050565b600061417a82614153565b614184818561415e565b9350614194818560208601612d29565b61419d81612d5c565b840191505092915050565b60006080820190506141bd6000830187612e5d565b6141ca6020830186612e5d565b6141d760408301856132cc565b81810360608301526141e9818461416f565b905095945050505050565b60008151905061420381612c7e565b92915050565b60006020828403121561421f5761421e612c48565b5b600061422d848285016141f4565b9150509291505056fea2646970667358221220cc090705f176993e3e4f19d642fc720d44cbd9f856da70bc01b74d1a12a36a9d64736f6c634300080a0033516d6237705558776535473466554d56376768447834476b795177385a4e59666b7373457043466e735636756936",
  "linkReferences": {},
  "deployedLinkReferences": {}
}